{
  "address": "0x489333d5e469f3Fa48551b37495a410092FB4A9c",
  "abi": [
    {
      "anonymous": false,
      "inputs": [
        {
          "indexed": true,
          "internalType": "uint256",
          "name": "gameId",
          "type": "uint256"
        },
        {
          "indexed": true,
          "internalType": "address",
          "name": "creator",
          "type": "address"
        },
        {
          "indexed": false,
          "internalType": "address",
          "name": "gameContract",
          "type": "address"
        },
        {
          "indexed": false,
          "internalType": "string",
          "name": "name",
          "type": "string"
        }
      ],
      "name": "GameCreated",
      "type": "event"
    },
    {
      "anonymous": false,
      "inputs": [
        {
          "indexed": true,
          "internalType": "uint256",
          "name": "gameId",
          "type": "uint256"
        }
      ],
      "name": "GameFinalized",
      "type": "event"
    },
    {
      "anonymous": false,
      "inputs": [
        {
          "indexed": true,
          "internalType": "uint256",
          "name": "gameId",
          "type": "uint256"
        }
      ],
      "name": "GameRevealed",
      "type": "event"
    },
    {
      "anonymous": false,
      "inputs": [
        {
          "indexed": true,
          "internalType": "uint256",
          "name": "gameId",
          "type": "uint256"
        },
        {
          "indexed": true,
          "internalType": "address",
          "name": "player",
          "type": "address"
        }
      ],
      "name": "PlayerJoined",
      "type": "event"
    },
    {
      "inputs": [
        {
          "internalType": "string",
          "name": "name",
          "type": "string"
        },
        {
          "components": [
            {
              "internalType": "uint256",
              "name": "ctHash",
              "type": "uint256"
            },
            {
              "internalType": "uint8",
              "name": "securityZone",
              "type": "uint8"
            },
            {
              "internalType": "uint8",
              "name": "utype",
              "type": "uint8"
            },
            {
              "internalType": "bytes",
              "name": "signature",
              "type": "bytes"
            }
          ],
          "internalType": "struct InEuint32",
          "name": "creatorEntropy",
          "type": "tuple"
        }
      ],
      "name": "createGame",
      "outputs": [
        {
          "internalType": "uint256",
          "name": "gameId",
          "type": "uint256"
        }
      ],
      "stateMutability": "nonpayable",
      "type": "function"
    },
    {
      "inputs": [
        {
          "internalType": "uint256",
          "name": "gameId",
          "type": "uint256"
        }
      ],
      "name": "finalizeGame",
      "outputs": [],
      "stateMutability": "nonpayable",
      "type": "function"
    },
    {
      "inputs": [
        {
          "internalType": "uint256",
          "name": "",
          "type": "uint256"
        }
      ],
      "name": "gameContracts",
      "outputs": [
        {
          "internalType": "contract SecretSantaGame",
          "name": "",
          "type": "address"
        }
      ],
      "stateMutability": "view",
      "type": "function"
    },
    {
      "inputs": [],
      "name": "gameCount",
      "outputs": [
        {
          "internalType": "uint256",
          "name": "",
          "type": "uint256"
        }
      ],
      "stateMutability": "view",
      "type": "function"
    },
    {
      "inputs": [
        {
          "internalType": "address",
          "name": "",
          "type": "address"
        },
        {
          "internalType": "uint256",
          "name": "",
          "type": "uint256"
        }
      ],
      "name": "gamesByCreator",
      "outputs": [
        {
          "internalType": "uint256",
          "name": "",
          "type": "uint256"
        }
      ],
      "stateMutability": "view",
      "type": "function"
    },
    {
      "inputs": [
        {
          "internalType": "address",
          "name": "",
          "type": "address"
        },
        {
          "internalType": "uint256",
          "name": "",
          "type": "uint256"
        }
      ],
      "name": "gamesByPlayer",
      "outputs": [
        {
          "internalType": "uint256",
          "name": "",
          "type": "uint256"
        }
      ],
      "stateMutability": "view",
      "type": "function"
    },
    {
      "inputs": [
        {
          "internalType": "uint256",
          "name": "gameId",
          "type": "uint256"
        }
      ],
      "name": "getGame",
      "outputs": [
        {
          "components": [
            {
              "internalType": "uint256",
              "name": "gameId",
              "type": "uint256"
            },
            {
              "internalType": "address",
              "name": "gameContract",
              "type": "address"
            },
            {
              "internalType": "address",
              "name": "creator",
              "type": "address"
            },
            {
              "internalType": "string",
              "name": "name",
              "type": "string"
            },
            {
              "internalType": "uint256",
              "name": "createdAt",
              "type": "uint256"
            },
            {
              "internalType": "uint8",
              "name": "state",
              "type": "uint8"
            },
            {
              "internalType": "uint256",
              "name": "playerCount",
              "type": "uint256"
            }
          ],
          "internalType": "struct SecretSantaFactory.GameInfo",
          "name": "",
          "type": "tuple"
        }
      ],
      "stateMutability": "view",
      "type": "function"
    },
    {
      "inputs": [
        {
          "internalType": "uint256",
          "name": "gameId",
          "type": "uint256"
        }
      ],
      "name": "getGameContract",
      "outputs": [
        {
          "internalType": "address",
          "name": "",
          "type": "address"
        }
      ],
      "stateMutability": "view",
      "type": "function"
    },
    {
      "inputs": [
        {
          "internalType": "address",
          "name": "creator",
          "type": "address"
        }
      ],
      "name": "getGamesByCreator",
      "outputs": [
        {
          "internalType": "uint256[]",
          "name": "",
          "type": "uint256[]"
        }
      ],
      "stateMutability": "view",
      "type": "function"
    },
    {
      "inputs": [
        {
          "internalType": "address",
          "name": "player",
          "type": "address"
        }
      ],
      "name": "getGamesByPlayer",
      "outputs": [
        {
          "internalType": "uint256[]",
          "name": "",
          "type": "uint256[]"
        }
      ],
      "stateMutability": "view",
      "type": "function"
    },
    {
      "inputs": [
        {
          "internalType": "uint256",
          "name": "gameId",
          "type": "uint256"
        },
        {
          "components": [
            {
              "internalType": "uint256",
              "name": "ctHash",
              "type": "uint256"
            },
            {
              "internalType": "uint8",
              "name": "securityZone",
              "type": "uint8"
            },
            {
              "internalType": "uint8",
              "name": "utype",
              "type": "uint8"
            },
            {
              "internalType": "bytes",
              "name": "signature",
              "type": "bytes"
            }
          ],
          "internalType": "struct InEuint32",
          "name": "userEntropy",
          "type": "tuple"
        }
      ],
      "name": "joinGame",
      "outputs": [],
      "stateMutability": "nonpayable",
      "type": "function"
    },
    {
      "inputs": [
        {
          "internalType": "uint256",
          "name": "offset",
          "type": "uint256"
        },
        {
          "internalType": "uint256",
          "name": "limit",
          "type": "uint256"
        }
      ],
      "name": "listGames",
      "outputs": [
        {
          "components": [
            {
              "internalType": "uint256",
              "name": "gameId",
              "type": "uint256"
            },
            {
              "internalType": "address",
              "name": "gameContract",
              "type": "address"
            },
            {
              "internalType": "address",
              "name": "creator",
              "type": "address"
            },
            {
              "internalType": "string",
              "name": "name",
              "type": "string"
            },
            {
              "internalType": "uint256",
              "name": "createdAt",
              "type": "uint256"
            },
            {
              "internalType": "uint8",
              "name": "state",
              "type": "uint8"
            },
            {
              "internalType": "uint256",
              "name": "playerCount",
              "type": "uint256"
            }
          ],
          "internalType": "struct SecretSantaFactory.GameInfo[]",
          "name": "",
          "type": "tuple[]"
        }
      ],
      "stateMutability": "view",
      "type": "function"
    },
    {
      "inputs": [
        {
          "internalType": "uint256",
          "name": "offset",
          "type": "uint256"
        },
        {
          "internalType": "uint256",
          "name": "limit",
          "type": "uint256"
        }
      ],
      "name": "listOpenGames",
      "outputs": [
        {
          "components": [
            {
              "internalType": "uint256",
              "name": "gameId",
              "type": "uint256"
            },
            {
              "internalType": "address",
              "name": "gameContract",
              "type": "address"
            },
            {
              "internalType": "address",
              "name": "creator",
              "type": "address"
            },
            {
              "internalType": "string",
              "name": "name",
              "type": "string"
            },
            {
              "internalType": "uint256",
              "name": "createdAt",
              "type": "uint256"
            },
            {
              "internalType": "uint8",
              "name": "state",
              "type": "uint8"
            },
            {
              "internalType": "uint256",
              "name": "playerCount",
              "type": "uint256"
            }
          ],
          "internalType": "struct SecretSantaFactory.GameInfo[]",
          "name": "",
          "type": "tuple[]"
        }
      ],
      "stateMutability": "view",
      "type": "function"
    },
    {
      "inputs": [
        {
          "internalType": "uint256",
          "name": "gameId",
          "type": "uint256"
        }
      ],
      "name": "revealGame",
      "outputs": [],
      "stateMutability": "nonpayable",
      "type": "function"
    }
  ],
  "transactionHash": "0x28b8890cb454076299a4e3428f9fa2646ab9fed161dd84a19fd2ace375339a37",
  "args": [],
  "numDeployments": 1,
  "solcInputHash": "c41e9e0d5da26387a2b9f822f5a212c2",
  "bytecode": "0x6080604052348015600e575f80fd5b506132438061001c5f395ff3fe608060405234801561000f575f80fd5b50600436106100e5575f3560e01c80636fc0677e11610088578063a2f77bcc11610063578063a2f77bcc146101e7578063cd3b356e14610207578063da5051691461022f578063e3f7274014610242575f80fd5b80636fc0677e14610196578063771197ee146101c15780639083e016146101d4575f80fd5b80634492b455116100c35780634492b455146101535780634d1975b4146101665780634da93c2d1461016e57806363a119a614610181575f80fd5b80630483c981146100e9578063064ffb2e146101125780633290625714610132575b5f80fd5b6100fc6100f7366004611325565b610255565b6040516101099190611345565b60405180910390f35b610125610120366004611388565b6102be565b6040516101099190611436565b610145610140366004611498565b610616565b604051908152602001610109565b610125610161366004611388565b610641565b6101455f5481565b61014561017c3660046114d6565b610a2a565b61019461018f366004611562565b610c93565b005b6101a96101a43660046115a6565b610d99565b6040516001600160a01b039091168152602001610109565b6101946101cf3660046115a6565b610dd5565b6100fc6101e2366004611325565b610ef2565b6101fa6101f53660046115a6565b610f59565b60405161010991906115bd565b6101a96102153660046115a6565b60016020525f90815260409020546001600160a01b031681565b61014561023d366004611498565b611178565b6101946102503660046115a6565b611191565b6001600160a01b0381165f908152600460209081526040918290208054835181840281018401909452808452606093928301828280156102b257602002820191905f5260205f20905b81548152602001906001019080831161029e575b50505050509050919050565b60605f54831061030057604080515f80825260208201909252906102f8565b6102e56112b1565b8152602001906001900390816102dd5790505b509050610610565b5f835f5461030e91906115f7565b90508281111561031b5750815b5f8167ffffffffffffffff811115610335576103356115cf565b60405190808252806020026020018201604052801561036e57816020015b61035b6112b1565b8152602001906001900390816103535790505b5090505f5b8281101561060b5760025f610388838961160a565b815260208082019290925260409081015f20815160e0810183528154815260018201546001600160a01b03908116948201949094526002820154909316918301919091526003810180546060840191906103e19061161d565b80601f016020809104026020016040519081016040528092919081815260200182805461040d9061161d565b80156104585780601f1061042f57610100808354040283529160200191610458565b820191905f5260205f20905b81548152906001019060200180831161043b57829003601f168201915b505050918352505060048201546020820152600582015460ff16604082015260069091015460609091015282518390839081106104975761049761164f565b602090810291909101015260015f6104af838961160a565b81526020019081526020015f205f9054906101000a90046001600160a01b03166001600160a01b031663c19d93fb6040518163ffffffff1660e01b8152600401602060405180830381865afa15801561050a573d5f803e3d5ffd5b505050506040513d601f19601f8201168201806040525081019061052e9190611674565b8282815181106105405761054061164f565b602090810291909101015160ff90911660a09091015260015f610563838961160a565b81526020019081526020015f205f9054906101000a90046001600160a01b03166001600160a01b031663ad6057296040518163ffffffff1660e01b8152600401602060405180830381865afa1580156105be573d5f803e3d5ffd5b505050506040513d601f19601f820116820180604052508101906105e2919061168f565b8282815181106105f4576105f461164f565b602090810291909101015160c00152600101610373565b509150505b92915050565b6003602052815f5260405f20818154811061062f575f80fd5b905f5260205f20015f91509150505481565b60605f805b5f548110156106e3575f8181526001602090815260409182902054825163c19d93fb60e01b815292516001600160a01b039091169263c19d93fb9260048083019391928290030181865afa1580156106a0573d5f803e3d5ffd5b505050506040513d601f19601f820116820180604052508101906106c49190611674565b60ff165f036106db57816106d7816116a6565b9250505b600101610646565b508015806106f15750808410155b1561072f57604080515f8082526020820190925290610726565b6107136112b1565b81526020019060019003908161070b5790505b50915050610610565b5f61073a85836115f7565b9050838111156107475750825b5f8167ffffffffffffffff811115610761576107616115cf565b60405190808252806020026020018201604052801561079a57816020015b6107876112b1565b81526020019060019003908161077f5790505b5090505f805f5b5f54811080156107b057508483105b15610a1d575f8181526001602090815260409182902054825163c19d93fb60e01b815292516001600160a01b039091169263c19d93fb9260048083019391928290030181865afa158015610806573d5f803e3d5ffd5b505050506040513d601f19601f8201168201806040525081019061082a9190611674565b60ff165f03610a0b578882106109fd575f81815260026020818152604092839020835160e0810185528154815260018201546001600160a01b039081169382019390935292810154909116928201929092526003820180549192916060840191906108949061161d565b80601f01602080910402602001604051908101604052809291908181526020018280546108c09061161d565b801561090b5780601f106108e25761010080835404028352916020019161090b565b820191905f5260205f20905b8154815290600101906020018083116108ee57829003601f168201915b505050918352505060048201546020820152600582015460ff166040820152600690910154606090910152845185908590811061094a5761094a61164f565b6020908102919091018101919091525f8281526001825260409081902054815163ad60572960e01b815291516001600160a01b039091169263ad60572992600480820193918290030181865afa1580156109a6573d5f803e3d5ffd5b505050506040513d601f19601f820116820180604052508101906109ca919061168f565b8484815181106109dc576109dc61164f565b602090810291909101015160c00152826109f5816116a6565b935050610a0b565b81610a07816116a6565b9250505b80610a15816116a6565b9150506107a1565b5091979650505050505050565b5f80548180610a38836116a6565b9190505590505f813330604051610a4e906112fd565b9283526001600160a01b039182166020840152166040820152606001604051809103905ff080158015610a83573d5f803e3d5ffd5b505f8381526001602090815260409182902080546001600160a01b0319166001600160a01b038516908117909155825160e0810184528681528083019190915233818401528251601f890183900483028101830190935287835292935060608301919088908890819084018382808284375f920182905250938552505042602080850191909152604080850184905260016060958601819052888552600280845294829020875181559287015190830180546001600160a01b03199081166001600160a01b039384161790915591870151948301805490921694169390931790925550908201516003820190610b79908261170a565b50608082015160048281019190915560a083015160058301805460ff191660ff90921691909117905560c090920151600690910155335f8181526003602090815260408083208054600181018255908452919092200185905551635193ec5760e01b81526001600160a01b03841692635193ec5792610bfc9290918891016117f2565b5f604051808303815f87803b158015610c13575f80fd5b505af1158015610c25573d5f803e3d5ffd5b5050335f81815260046020908152604080832080546001810182559084529190922001869055519092508491507fe03354b4c3fe319267edd4a9676f0e78fbffd8dd621c7d8f70b98029880d0ff390610c839085908a908a90611898565b60405180910390a3509392505050565b5f548210610cbc5760405162461bcd60e51b8152600401610cb3906118c5565b60405180910390fd5b5f8281526001602052604090819020549051635193ec5760e01b81526001600160a01b0390911690635193ec5790610cfa90339085906004016117f2565b5f604051808303815f87803b158015610d11575f80fd5b505af1158015610d23573d5f803e3d5ffd5b5050335f90815260046020908152604080832080546001810182559084528284200187905586835260029091528120600601805493509150610d64836116a6565b9091555050604051339083907f87969bc7faf902221a147b95ceba76e011c5efb0339a0a8ee7a2bb82d9cfbbd6905f90a35050565b5f80548210610dba5760405162461bcd60e51b8152600401610cb3906118c5565b505f908152600160205260409020546001600160a01b031690565b5f548110610df55760405162461bcd60e51b8152600401610cb3906118c5565b5f81815260026020819052604090912001546001600160a01b03163314610e4c5760405162461bcd60e51b815260206004820152600b60248201526a3737ba1031b932b0ba37b960a91b6044820152606401610cb3565b5f81815260016020526040808220548151634bb278f360e01b815291516001600160a01b0390911692634bb278f3926004808201939182900301818387803b158015610e96575f80fd5b505af1158015610ea8573d5f803e3d5ffd5b5050505f82815260026020526040808220600501805460ff19166001179055518392507f821e8f282903f17bca18208015c4de756a7bbcd272fce239c6701cf1f9aed6209190a250565b6001600160a01b0381165f908152600360209081526040918290208054835181840281018401909452808452606093928301828280156102b257602002820191905f5260205f209081548152602001906001019080831161029e5750505050509050919050565b610f616112b1565b5f548210610f815760405162461bcd60e51b8152600401610cb3906118c5565b5f828152600260208181526040808420815160e0810183528154815260018201546001600160a01b03908116948201949094529381015490921690830152600381018054606084019190610fd49061161d565b80601f01602080910402602001604051908101604052809291908181526020018280546110009061161d565b801561104b5780601f106110225761010080835404028352916020019161104b565b820191905f5260205f20905b81548152906001019060200180831161102e57829003601f168201915b5050509183525050600482810154602080840191909152600584015460ff166040808501919091526006909401546060909301929092525f8781526001835283902054835163c19d93fb60e01b815293519495506001600160a01b03169363c19d93fb938083019392908290030181865afa1580156110cc573d5f803e3d5ffd5b505050506040513d601f19601f820116820180604052508101906110f09190611674565b60ff1660a08201525f8381526001602090815260409182902054825163ad60572960e01b815292516001600160a01b039091169263ad6057299260048083019391928290030181865afa158015611149573d5f803e3d5ffd5b505050506040513d601f19601f8201168201806040525081019061116d919061168f565b60c082015292915050565b6004602052815f5260405f20818154811061062f575f80fd5b5f5481106111b15760405162461bcd60e51b8152600401610cb3906118c5565b5f81815260026020819052604090912001546001600160a01b031633146112085760405162461bcd60e51b815260206004820152600b60248201526a3737ba1031b932b0ba37b960a91b6044820152606401610cb3565b5f8181526001602052604080822054815163216873a760e11b815291516001600160a01b03909116926342d0e74e926004808201939182900301818387803b158015611252575f80fd5b505af1158015611264573d5f803e3d5ffd5b5050505f828152600260208190526040808320600501805460ff1916909217909155518392507fab1df3e178b47bd223536fd1d2353abb8810e22f02f28cfa9b5843d31a2b162c9190a250565b6040518060e001604052805f81526020015f6001600160a01b031681526020015f6001600160a01b03168152602001606081526020015f81526020015f60ff1681526020015f81525090565b611920806118ee83390190565b80356001600160a01b0381168114611320575f80fd5b919050565b5f60208284031215611335575f80fd5b61133e8261130a565b9392505050565b602080825282518282018190525f9190848201906040850190845b8181101561137c57835183529284019291840191600101611360565b50909695505050505050565b5f8060408385031215611399575f80fd5b50508035926020909101359150565b805182525f602082015160018060a01b0380821660208601528060408501511660408601525050606082015160e0606085015280518060e086015261010081602084018288015e5f8183880101526080850151608087015260a0850151925061141660a087018460ff169052565b60c09485015194860194909452601f01601f191690930190910192915050565b5f60208083016020845280855180835260408601915060408160051b8701019250602087015f5b8281101561148b57603f198886030184526114798583516113a8565b9450928501929085019060010161145d565b5092979650505050505050565b5f80604083850312156114a9575f80fd5b6114b28361130a565b946020939093013593505050565b5f608082840312156114d0575f80fd5b50919050565b5f805f604084860312156114e8575f80fd5b833567ffffffffffffffff808211156114ff575f80fd5b818601915086601f830112611512575f80fd5b813581811115611520575f80fd5b876020828501011115611531575f80fd5b60209283019550935090850135908082111561154b575f80fd5b50611558868287016114c0565b9150509250925092565b5f8060408385031215611573575f80fd5b82359150602083013567ffffffffffffffff811115611590575f80fd5b61159c858286016114c0565b9150509250929050565b5f602082840312156115b6575f80fd5b5035919050565b602081525f61133e60208301846113a8565b634e487b7160e01b5f52604160045260245ffd5b634e487b7160e01b5f52601160045260245ffd5b81810381811115610610576106106115e3565b80820180821115610610576106106115e3565b600181811c9082168061163157607f821691505b6020821081036114d057634e487b7160e01b5f52602260045260245ffd5b634e487b7160e01b5f52603260045260245ffd5b60ff81168114611671575f80fd5b50565b5f60208284031215611684575f80fd5b815161133e81611663565b5f6020828403121561169f575f80fd5b5051919050565b5f600182016116b7576116b76115e3565b5060010190565b601f82111561170557805f5260205f20601f840160051c810160208510156116e35750805b601f840160051c820191505b81811015611702575f81556001016116ef565b50505b505050565b815167ffffffffffffffff811115611724576117246115cf565b61173881611732845461161d565b846116be565b602080601f83116001811461176b575f84156117545750858301515b5f19600386901b1c1916600185901b1785556117c2565b5f85815260208120601f198616915b828110156117995788860151825594840194600190910190840161177a565b50858210156117b657878501515f19600388901b60f8161c191681555b505060018460011b0185555b505050505050565b81835281816020850137505f828201602090810191909152601f909101601f19169091010190565b60018060a01b038316815260406020820152813560408201525f602083013561181a81611663565b60ff166060830152604083013561183081611663565b60ff166080830152606083013536849003601e1901811261184f575f80fd5b830160208101903567ffffffffffffffff81111561186b575f80fd5b803603821315611879575f80fd5b608060a085015261188e60c0850182846117ca565b9695505050505050565b6001600160a01b03841681526040602082018190525f906118bc90830184866117ca565b95945050505050565b6020808252600e908201526d19d85b59481b9bdd08199bdd5b9960921b60408201526060019056fe60e060405234801561000f575f80fd5b5060405161192038038061192083398101604081905261002e91610206565b60808390526001600160a01b0380831660a052811660c05261004f5f61005b565b600355506102fe915050565b5f610066828261006c565b92915050565b5f8061007a84600485610082565b949350505050565b604080515f8082526020820190925273ea30c4b8b44078bbf8a6ef5b9f1ec1626c7848d990631888debd908590601a906100c88960ff8a166100c38a610127565b610160565b6040518563ffffffff1660e01b81526004016100e79493929190610279565b6020604051808303815f875af1158015610103573d5f803e3d5ffd5b505050506040513d601f19601f8201168201806040525081019061007a91906102d3565b5f808260030b1215610156576040516311ead17f60e31b8152600383900b600482015260240160405180910390fd5b5063ffffffff1690565b604080516003808252608082019092526060915f919060208201848036833701905050905084815f81518110610198576101986102ea565b60200260200101818152505083816001815181106101b8576101b86102ea565b60200260200101818152505082816002815181106101d8576101d86102ea565b6020908102919091010152949350505050565b80516001600160a01b0381168114610201575f80fd5b919050565b5f805f60608486031215610218575f80fd5b83519250610228602085016101eb565b9150610236604085016101eb565b90509250925092565b5f815180845260208085019450602084015f5b8381101561026e57815187529582019590820190600101610252565b509495945050505050565b60ff851681525f6020851061029c57634e487b7160e01b5f52602160045260245ffd5b846020830152608060408301526102b6608083018561023f565b82810360608401526102c8818561023f565b979650505050505050565b5f602082840312156102e3575f80fd5b5051919050565b634e487b7160e01b5f52603260045260245ffd5b60805160a05160c0516115e361033d5f395f81816102b7015281816103a20152818161056f01526108e001525f61010f01525f6102de01526115e35ff3fe608060405234801561000f575f80fd5b5060043610610106575f3560e01c80635aa68ac01161009e578063c19d93fb1161006e578063c19d93fb14610230578063c3baa1de1461024e578063c3c5a54714610288578063c45a0155146102b2578063d7c81b55146102d9575f80fd5b80635aa68ac0146101ce578063627a04a5146101e3578063ad605729146101f6578063b9a53013146101fe575f80fd5b806342d0e74e116100d957806342d0e74e146101a157806345098cd3146101ab5780634bb278f3146101b35780635193ec57146101bb575f80fd5b806302d05d3f1461010a57806315b9d42c1461014e5780631b9db2ef1461017b57806335c1d3491461018e575b5f80fd5b6101317f000000000000000000000000000000000000000000000000000000000000000081565b6040516001600160a01b0390911681526020015b60405180910390f35b61016d61015c3660046111d2565b60026020525f908152604090205481565b604051908152602001610145565b6101316101893660046111eb565b610300565b61013161019c3660046111eb565b61036f565b6101a9610397565b005b61016d6104a3565b6101a9610564565b6101a96101c9366004611202565b6108d5565b6101d6610a33565b6040516101459190611253565b61016d6101f13660046111eb565b610a93565b60015461016d565b61022061020c3660046111d2565b60066020525f908152604090205460ff1681565b6040519015158152602001610145565b5f5461023c9060ff1681565b60405160ff9091168152602001610145565b61027361025c3660046111d2565b60056020525f908152604090205463ffffffff1681565b60405163ffffffff9091168152602001610145565b6102206102963660046111d2565b6001600160a01b03165f90815260026020526040902054151590565b6101317f000000000000000000000000000000000000000000000000000000000000000081565b61016d7f000000000000000000000000000000000000000000000000000000000000000081565b6001545f9082106103425760405162461bcd60e51b81526020600482015260076024820152661a5b9d985b1a5960ca1b60448201526064015b60405180910390fd5b600182815481106103555761035561129f565b5f918252602090912001546001600160a01b031692915050565b6001818154811061037e575f80fd5b5f918252602090912001546001600160a01b0316905081565b336001600160a01b037f000000000000000000000000000000000000000000000000000000000000000016146103df5760405162461bcd60e51b8152600401610339906112b3565b5f5460ff166001146104205760405162461bcd60e51b815260206004820152600a6024820152696e6f742061637469766560b01b6044820152606401610339565b6001545f5b81811015610493575f5b8281101561048a576104826004838154811061044d5761044d61129f565b905f5260205f200154600183815481106104695761046961129f565b5f918252602090912001546001600160a01b0316610afa565b60010161042f565b50600101610425565b50505f805460ff19166002179055565b5f8054600160ff90911610156104e85760405162461bcd60e51b815260206004820152600a6024820152696e6f742061637469766560b01b6044820152606401610339565b335f90815260026020526040812054908190036105385760405162461bcd60e51b815260206004820152600e60248201526d1b9bdd081c9959da5cdd195c995960921b6044820152606401610339565b60046105456001836112ed565b815481106105555761055561129f565b905f5260205f20015491505090565b336001600160a01b037f000000000000000000000000000000000000000000000000000000000000000016146105ac5760405162461bcd60e51b8152600401610339906112b3565b5f5460ff16156105f15760405162461bcd60e51b815260206004820152601060248201526f3737ba103932b3b4b9ba3930ba34b7b760811b6044820152606401610339565b6001546003111561062e5760405162461bcd60e51b81526020600482015260076024820152666e65656420332b60c81b6044820152606401610339565b6001545f61064163ffffffff8316610b6d565b90505f61065c600354610657635a5a5a5a610b6d565b610b7e565b90505f61067260035461065763a5a5a5a5610b6d565b90505f61067f8285610bc6565b90505f6106b0846106ab600261069660018b6112ed565b6106a09190611314565b63ffffffff16610b6d565b610bc6565b90505f6106d86106c9836106c46002610b6d565b610c07565b6106d36001610b6d565b610c48565b90505f6106ee826106e96002610b6d565b610c89565b9050610704816106fe6003610b6d565b84610cca565b91505f5b88811015610777575f61073661073061072a866106c48663ffffffff16610b6d565b88610c48565b8a610bc6565b60048054600181810183555f929092527f8a35acfbc15ff81a39ae7d344fd709f28e8600b4aa8c65c6b64bfe7fe36bd19b0191909155919091019050610708565b505f5b88811015610871575f8961078f836001611327565b610799919061133a565b90505f6107cf600484815481106107b2576107b261129f565b905f5260205f2001546107ca8563ffffffff16610b6d565b610d2b565b90505f600484815481106107e5576107e561129f565b905f5260205f20015490505f600484815481106108045761080461129f565b905f5260205f200154905061081a838284610cca565b6004868154811061082d5761082d61129f565b5f91825260209091200155610843838383610cca565b600485815481106108565761085661129f565b5f9182526020909120015550506001909201915061077a9050565b505f5b888110156108be576108926004828154811061044d5761044d61129f565b6108b6600482815481106108a8576108a861129f565b905f5260205f200154610d6c565b600101610874565b50505f805460ff1916600117905550505050505050565b336001600160a01b037f0000000000000000000000000000000000000000000000000000000000000000161461091d5760405162461bcd60e51b8152600401610339906112b3565b5f5460ff16156109625760405162461bcd60e51b815260206004820152601060248201526f3737ba103932b3b4b9ba3930ba34b7b760811b6044820152606401610339565b6001600160a01b0382165f90815260026020526040902054156109bc5760405162461bcd60e51b8152602060048201526012602482015271185b1c9958591e481c9959da5cdd195c995960721b6044820152606401610339565b6001805480820182557fb10e2d527612073b26eecdfd717e6a320cf44b4afac2b0732d9fcbe2b7fa0cf60180546001600160a01b0319166001600160a01b03851690811790915590545f9182526002602052604090912055600354610a2c90610657610a27846113cb565b610dd5565b6003555050565b60606001805480602002602001604051908101604052809291908181526020018280548015610a8957602002820191905f5260205f20905b81546001600160a01b03168152600190910190602001808311610a6b575b5050505050905090565b5f805460ff16600214610ad75760405162461bcd60e51b815260206004820152600c60248201526b1b9bdd081c995d99585b195960a21b6044820152606401610339565b60048281548110610aea57610aea61129f565b905f5260205f2001549050919050565b604051631974142760e21b8152600481018390526001600160a01b038216602482015273ea30c4b8b44078bbf8a6ef5b9f1ec1626c7848d9906365d0509c906044015f604051808303815f87803b158015610b53575f80fd5b505af1158015610b65573d5f803e3d5ffd5b505050505050565b5f610b78825f610e6a565b92915050565b5f610b8883610e78565b610b9857610b955f610b6d565b92505b610ba182610e78565b610bb157610bae5f610b6d565b91505b610bbf600484846009610e81565b9392505050565b5f610bd083610e78565b610be057610bdd5f610b6d565b92505b610be982610e78565b610bf957610bf65f610b6d565b91505b610bbf60048484600e610e81565b5f610c1183610e78565b610c2157610c1e5f610b6d565b92505b610c2a82610e78565b610c3a57610c375f610b6d565b91505b610bbf60048484600f610e81565b5f610c5283610e78565b610c6257610c5f5f610b6d565b92505b610c6b82610e78565b610c7b57610c785f610b6d565b91505b610bbf600484846008610e81565b5f610c9383610e78565b610ca357610ca05f610b6d565b92505b610cac82610e78565b610cbc57610cb95f610b6d565b91505b610bbf600484846014610e81565b5f610cd484610e78565b610ce457610ce15f610f22565b93505b610ced83610e78565b610cfd57610cfa5f610b6d565b92505b610d0682610e78565b610d1657610d135f610b6d565b91505b610d236004858585610f2d565b949350505050565b5f610d3583610e78565b610d4557610d425f610b6d565b92505b610d4e82610e78565b610d5e57610d5b5f610b6d565b91505b610bbf600484846018610e81565b604051631974142760e21b81526004810182905230602482015273ea30c4b8b44078bbf8a6ef5b9f1ec1626c7848d9906365d0509c906044015f604051808303815f87803b158015610dbc575f80fd5b505af1158015610dce573d5f803e3d5ffd5b5050505050565b60408101515f9060049060ff168114610e145760408084015190516367cf307160e01b815260ff91821660048201529082166024820152604401610339565b60408051608080820183525f808352602080840182905283850191909152606092830183905283519182018452865182528087015160ff16908201526004928101929092528085015190820152610bbf90610f56565b5f80610d2384600485610fd1565b5f811515610b78565b5f73ea30c4b8b44078bbf8a6ef5b9f1ec1626c7848d9631888debd8684610ea88888611076565b604080515f815260208101918290526001600160e01b031960e087901b16909152610ed993929190602481016114c7565b6020604051808303815f875af1158015610ef5573d5f803e3d5ffd5b505050506040513d601f19601f82011682018060405250810190610f199190611521565b95945050505050565b5f610b78825f6110df565b5f73ea30c4b8b44078bbf8a6ef5b9f1ec1626c7848d9631888debd866004610ea88888886110f7565b6040516313fce3b160e11b81525f9073ea30c4b8b44078bbf8a6ef5b9f1ec1626c7848d9906327f9c76290610f919085903390600401611538565b6020604051808303815f875af1158015610fad573d5f803e3d5ffd5b505050506040513d601f19601f82011682018060405250810190610b789190611521565b604080515f8082526020820190925273ea30c4b8b44078bbf8a6ef5b9f1ec1626c7848d990631888debd908590601a90611017898960ff166110128a611182565b6110f7565b6040518563ffffffff1660e01b815260040161103694939291906114c7565b6020604051808303815f875af1158015611052573d5f803e3d5ffd5b505050506040513d601f19601f82011682018060405250810190610d239190611521565b60408051600280825260608083018452925f92919060208301908036833701905050905083815f815181106110ad576110ad61129f565b60200260200101818152505082816001815181106110cd576110cd61129f565b60209081029190910101529392505050565b5f8083156110eb575060015b5f610f19825f86610fd1565b604080516003808252608082019092526060915f919060208201848036833701905050905084815f8151811061112f5761112f61129f565b602002602001018181525050838160018151811061114f5761114f61129f565b602002602001018181525050828160028151811061116f5761116f61129f565b6020908102919091010152949350505050565b5f808260030b12156111ad576040516311ead17f60e31b8152600383900b6004820152602401610339565b5063ffffffff1690565b80356001600160a01b03811681146111cd575f80fd5b919050565b5f602082840312156111e2575f80fd5b610bbf826111b7565b5f602082840312156111fb575f80fd5b5035919050565b5f8060408385031215611213575f80fd5b61121c836111b7565b9150602083013567ffffffffffffffff811115611237575f80fd5b830160808186031215611248575f80fd5b809150509250929050565b602080825282518282018190525f9190848201906040850190845b818110156112935783516001600160a01b03168352928401929184019160010161126e565b50909695505050505050565b634e487b7160e01b5f52603260045260245ffd5b6020808252600c908201526b6f6e6c7920666163746f727960a01b604082015260600190565b634e487b7160e01b5f52601160045260245ffd5b81810381811115610b7857610b786112d9565b634e487b7160e01b5f52601260045260245ffd5b5f8261132257611322611300565b500490565b80820180821115610b7857610b786112d9565b5f8261134857611348611300565b500690565b634e487b7160e01b5f52604160045260245ffd5b6040516080810167ffffffffffffffff811182821017156113845761138461134d565b60405290565b604051601f8201601f1916810167ffffffffffffffff811182821017156113b3576113b361134d565b604052919050565b803560ff811681146111cd575f80fd5b5f608082360312156113db575f80fd5b6113e3611361565b8235815260206113f48185016113bb565b81830152611404604085016113bb565b6040830152606084013567ffffffffffffffff80821115611423575f80fd5b9085019036601f830112611435575f80fd5b8135818111156114475761144761134d565b611459601f8201601f1916850161138a565b9150808252368482850101111561146e575f80fd5b80848401858401375f9082019093019290925250606082015292915050565b5f815180845260208085019450602084015f5b838110156114bc578151875295820195908201906001016114a0565b509495945050505050565b60ff851681525f602085106114ea57634e487b7160e01b5f52602160045260245ffd5b84602083015260806040830152611504608083018561148d565b8281036060840152611516818561148d565b979650505050505050565b5f60208284031215611531575f80fd5b5051919050565b604081528251604082015260ff602084015116606082015260ff60408401511660808201525f6060840151608060a084015280518060c0850152806020830160e086015e5f60e08286018101919091526001600160a01b03959095166020850152601f01601f1916909201909201939250505056fea26469706673582212205a16e16a9bdfcd5c7f8853b3071ce7d8872b78dcb14dbeddcc87b8aa06387fe564736f6c63430008190033a2646970667358221220dbac16efe094a32762ae3d81133154e2fa7eabf0f962fc716c5fd6a6b60f2d6264736f6c63430008190033",
  "devdoc": {
    "kind": "dev",
    "methods": {
      "createGame(string,(uint256,uint8,uint8,bytes))": {
        "params": {
          "creatorEntropy": "Encrypted random value for assignment randomness",
          "name": "The name of the game"
        },
        "returns": {
          "gameId": "The ID of the created game (share this with friends!)"
        }
      },
      "finalizeGame(uint256)": {
        "params": {
          "gameId": "The ID of the game to finalize"
        }
      },
      "joinGame(uint256,(uint256,uint8,uint8,bytes))": {
        "params": {
          "gameId": "The ID of the game to join",
          "userEntropy": "Encrypted random value for assignment randomness"
        }
      },
      "revealGame(uint256)": {
        "params": {
          "gameId": "The ID of the game to reveal"
        }
      }
    },
    "version": 1
  },
  "userdoc": {
    "kind": "user",
    "methods": {
      "createGame(string,(uint256,uint8,uint8,bytes))": {
        "notice": "Create a Secret Santa game"
      },
      "finalizeGame(uint256)": {
        "notice": "Finalize a game and generate assignments (creator only)"
      },
      "joinGame(uint256,(uint256,uint8,uint8,bytes))": {
        "notice": "Join a game by ID"
      },
      "listGames(uint256,uint256)": {
        "notice": "List games with pagination"
      },
      "listOpenGames(uint256,uint256)": {
        "notice": "List only open games (registration phase)"
      },
      "revealGame(uint256)": {
        "notice": "Reveal all assignments to everyone (creator only)"
      }
    },
    "notice": " SECRET SANTA FACTORY  Factory contract to create and manage multiple Secret Santa games. Games are identified by unique IDs - share the ID to let friends join.  FEATURES   Create multiple games with unique IDs  Track all games by creator  Join games by ID  FHE-encrypted random assignments (no one knows who got whom!)  List and browse games  FLOW  CREATE GAME:   1. Creator encrypts entropy   2. createGame(name, entropy)  deploys new game contract   3. Creator auto-registered, gets game ID to share JOIN GAME:   1. Player encrypts entropy   2. joinGame(gameId, entropy)  registered in game FINALIZE:   1. Creator calls finalizeGame() when ready (3+ players)   2. LCG permutation creates encrypted assignments   3. Each player can only decrypt their own target ",
    "version": 1
  },
  "storageLayout": {
    "storage": [
      {
        "astId": 22420,
        "contract": "contracts/SecretSantaFactory.sol:SecretSantaFactory",
        "label": "gameCount",
        "offset": 0,
        "slot": "0",
        "type": "t_uint256"
      },
      {
        "astId": 22425,
        "contract": "contracts/SecretSantaFactory.sol:SecretSantaFactory",
        "label": "gameContracts",
        "offset": 0,
        "slot": "1",
        "type": "t_mapping(t_uint256,t_contract(SecretSantaGame)23598)"
      },
      {
        "astId": 22430,
        "contract": "contracts/SecretSantaFactory.sol:SecretSantaFactory",
        "label": "gameInfos",
        "offset": 0,
        "slot": "2",
        "type": "t_mapping(t_uint256,t_struct(GameInfo)22418_storage)"
      },
      {
        "astId": 22435,
        "contract": "contracts/SecretSantaFactory.sol:SecretSantaFactory",
        "label": "gamesByCreator",
        "offset": 0,
        "slot": "3",
        "type": "t_mapping(t_address,t_array(t_uint256)dyn_storage)"
      },
      {
        "astId": 22440,
        "contract": "contracts/SecretSantaFactory.sol:SecretSantaFactory",
        "label": "gamesByPlayer",
        "offset": 0,
        "slot": "4",
        "type": "t_mapping(t_address,t_array(t_uint256)dyn_storage)"
      }
    ],
    "types": {
      "t_address": {
        "encoding": "inplace",
        "label": "address",
        "numberOfBytes": "20"
      },
      "t_array(t_uint256)dyn_storage": {
        "base": "t_uint256",
        "encoding": "dynamic_array",
        "label": "uint256[]",
        "numberOfBytes": "32"
      },
      "t_contract(SecretSantaGame)23598": {
        "encoding": "inplace",
        "label": "contract SecretSantaGame",
        "numberOfBytes": "20"
      },
      "t_mapping(t_address,t_array(t_uint256)dyn_storage)": {
        "encoding": "mapping",
        "key": "t_address",
        "label": "mapping(address => uint256[])",
        "numberOfBytes": "32",
        "value": "t_array(t_uint256)dyn_storage"
      },
      "t_mapping(t_uint256,t_contract(SecretSantaGame)23598)": {
        "encoding": "mapping",
        "key": "t_uint256",
        "label": "mapping(uint256 => contract SecretSantaGame)",
        "numberOfBytes": "32",
        "value": "t_contract(SecretSantaGame)23598"
      },
      "t_mapping(t_uint256,t_struct(GameInfo)22418_storage)": {
        "encoding": "mapping",
        "key": "t_uint256",
        "label": "mapping(uint256 => struct SecretSantaFactory.GameInfo)",
        "numberOfBytes": "32",
        "value": "t_struct(GameInfo)22418_storage"
      },
      "t_string_storage": {
        "encoding": "bytes",
        "label": "string",
        "numberOfBytes": "32"
      },
      "t_struct(GameInfo)22418_storage": {
        "encoding": "inplace",
        "label": "struct SecretSantaFactory.GameInfo",
        "members": [
          {
            "astId": 22405,
            "contract": "contracts/SecretSantaFactory.sol:SecretSantaFactory",
            "label": "gameId",
            "offset": 0,
            "slot": "0",
            "type": "t_uint256"
          },
          {
            "astId": 22407,
            "contract": "contracts/SecretSantaFactory.sol:SecretSantaFactory",
            "label": "gameContract",
            "offset": 0,
            "slot": "1",
            "type": "t_address"
          },
          {
            "astId": 22409,
            "contract": "contracts/SecretSantaFactory.sol:SecretSantaFactory",
            "label": "creator",
            "offset": 0,
            "slot": "2",
            "type": "t_address"
          },
          {
            "astId": 22411,
            "contract": "contracts/SecretSantaFactory.sol:SecretSantaFactory",
            "label": "name",
            "offset": 0,
            "slot": "3",
            "type": "t_string_storage"
          },
          {
            "astId": 22413,
            "contract": "contracts/SecretSantaFactory.sol:SecretSantaFactory",
            "label": "createdAt",
            "offset": 0,
            "slot": "4",
            "type": "t_uint256"
          },
          {
            "astId": 22415,
            "contract": "contracts/SecretSantaFactory.sol:SecretSantaFactory",
            "label": "state",
            "offset": 0,
            "slot": "5",
            "type": "t_uint8"
          },
          {
            "astId": 22417,
            "contract": "contracts/SecretSantaFactory.sol:SecretSantaFactory",
            "label": "playerCount",
            "offset": 0,
            "slot": "6",
            "type": "t_uint256"
          }
        ],
        "numberOfBytes": "224"
      },
      "t_uint256": {
        "encoding": "inplace",
        "label": "uint256",
        "numberOfBytes": "32"
      },
      "t_uint8": {
        "encoding": "inplace",
        "label": "uint8",
        "numberOfBytes": "1"
      }
    }
  }
}