{
  "_format": "hh-sol-artifact-1",
  "contractName": "SecretSanta",
  "sourceName": "contracts/SecretSantaFactory.sol",
  "abi": [
    {
      "inputs": [],
      "name": "AlreadyRegistered",
      "type": "error"
    },
    {
      "inputs": [],
      "name": "DecryptionNotReady",
      "type": "error"
    },
    {
      "inputs": [],
      "name": "GameNotFound",
      "type": "error"
    },
    {
      "inputs": [],
      "name": "GameNotStarted",
      "type": "error"
    },
    {
      "inputs": [
        {
          "internalType": "uint8",
          "name": "got",
          "type": "uint8"
        },
        {
          "internalType": "uint8",
          "name": "expected",
          "type": "uint8"
        }
      ],
      "name": "InvalidEncryptedInput",
      "type": "error"
    },
    {
      "inputs": [],
      "name": "InvalidPassword",
      "type": "error"
    },
    {
      "inputs": [],
      "name": "NeedAtLeast3Players",
      "type": "error"
    },
    {
      "inputs": [],
      "name": "NoPendingJoin",
      "type": "error"
    },
    {
      "inputs": [],
      "name": "NotActive",
      "type": "error"
    },
    {
      "inputs": [],
      "name": "NotCreator",
      "type": "error"
    },
    {
      "inputs": [],
      "name": "NotRegistered",
      "type": "error"
    },
    {
      "inputs": [],
      "name": "NotRegistrationPhase",
      "type": "error"
    },
    {
      "inputs": [],
      "name": "PendingJoinExists",
      "type": "error"
    },
    {
      "inputs": [
        {
          "internalType": "int32",
          "name": "value",
          "type": "int32"
        }
      ],
      "name": "SecurityZoneOutOfBounds",
      "type": "error"
    },
    {
      "anonymous": false,
      "inputs": [
        {
          "indexed": true,
          "internalType": "uint256",
          "name": "gameId",
          "type": "uint256"
        },
        {
          "indexed": true,
          "internalType": "address",
          "name": "creator",
          "type": "address"
        },
        {
          "indexed": false,
          "internalType": "string",
          "name": "name",
          "type": "string"
        },
        {
          "indexed": false,
          "internalType": "bool",
          "name": "hasPassword",
          "type": "bool"
        }
      ],
      "name": "GameCreated",
      "type": "event"
    },
    {
      "anonymous": false,
      "inputs": [
        {
          "indexed": true,
          "internalType": "uint256",
          "name": "gameId",
          "type": "uint256"
        }
      ],
      "name": "GameFinalized",
      "type": "event"
    },
    {
      "anonymous": false,
      "inputs": [
        {
          "indexed": true,
          "internalType": "uint256",
          "name": "gameId",
          "type": "uint256"
        }
      ],
      "name": "GameRevealed",
      "type": "event"
    },
    {
      "anonymous": false,
      "inputs": [
        {
          "indexed": true,
          "internalType": "uint256",
          "name": "gameId",
          "type": "uint256"
        },
        {
          "indexed": true,
          "internalType": "address",
          "name": "player",
          "type": "address"
        }
      ],
      "name": "JoinRequested",
      "type": "event"
    },
    {
      "anonymous": false,
      "inputs": [
        {
          "indexed": true,
          "internalType": "uint256",
          "name": "gameId",
          "type": "uint256"
        },
        {
          "indexed": true,
          "internalType": "address",
          "name": "player",
          "type": "address"
        }
      ],
      "name": "PlayerJoined",
      "type": "event"
    },
    {
      "inputs": [
        {
          "internalType": "uint256",
          "name": "gameId",
          "type": "uint256"
        }
      ],
      "name": "completeJoinGame",
      "outputs": [],
      "stateMutability": "nonpayable",
      "type": "function"
    },
    {
      "inputs": [
        {
          "internalType": "string",
          "name": "name",
          "type": "string"
        },
        {
          "components": [
            {
              "internalType": "uint256",
              "name": "ctHash",
              "type": "uint256"
            },
            {
              "internalType": "uint8",
              "name": "securityZone",
              "type": "uint8"
            },
            {
              "internalType": "uint8",
              "name": "utype",
              "type": "uint8"
            },
            {
              "internalType": "bytes",
              "name": "signature",
              "type": "bytes"
            }
          ],
          "internalType": "struct InEuint32",
          "name": "creatorEntropy",
          "type": "tuple"
        },
        {
          "components": [
            {
              "internalType": "uint256",
              "name": "ctHash",
              "type": "uint256"
            },
            {
              "internalType": "uint8",
              "name": "securityZone",
              "type": "uint8"
            },
            {
              "internalType": "uint8",
              "name": "utype",
              "type": "uint8"
            },
            {
              "internalType": "bytes",
              "name": "signature",
              "type": "bytes"
            }
          ],
          "internalType": "struct InEuint32",
          "name": "password",
          "type": "tuple"
        },
        {
          "internalType": "bool",
          "name": "hasPassword",
          "type": "bool"
        }
      ],
      "name": "createGame",
      "outputs": [
        {
          "internalType": "uint256",
          "name": "gameId",
          "type": "uint256"
        }
      ],
      "stateMutability": "nonpayable",
      "type": "function"
    },
    {
      "inputs": [
        {
          "internalType": "uint256",
          "name": "gameId",
          "type": "uint256"
        }
      ],
      "name": "finalizeGame",
      "outputs": [],
      "stateMutability": "nonpayable",
      "type": "function"
    },
    {
      "inputs": [],
      "name": "gameCount",
      "outputs": [
        {
          "internalType": "uint256",
          "name": "",
          "type": "uint256"
        }
      ],
      "stateMutability": "view",
      "type": "function"
    },
    {
      "inputs": [
        {
          "internalType": "address",
          "name": "",
          "type": "address"
        },
        {
          "internalType": "uint256",
          "name": "",
          "type": "uint256"
        }
      ],
      "name": "gamesByCreator",
      "outputs": [
        {
          "internalType": "uint256",
          "name": "",
          "type": "uint256"
        }
      ],
      "stateMutability": "view",
      "type": "function"
    },
    {
      "inputs": [
        {
          "internalType": "address",
          "name": "",
          "type": "address"
        },
        {
          "internalType": "uint256",
          "name": "",
          "type": "uint256"
        }
      ],
      "name": "gamesByPlayer",
      "outputs": [
        {
          "internalType": "uint256",
          "name": "",
          "type": "uint256"
        }
      ],
      "stateMutability": "view",
      "type": "function"
    },
    {
      "inputs": [
        {
          "internalType": "uint256",
          "name": "gameId",
          "type": "uint256"
        },
        {
          "internalType": "uint256",
          "name": "idx",
          "type": "uint256"
        }
      ],
      "name": "getDestination",
      "outputs": [
        {
          "internalType": "euint32",
          "name": "",
          "type": "uint256"
        }
      ],
      "stateMutability": "view",
      "type": "function"
    },
    {
      "inputs": [
        {
          "internalType": "uint256",
          "name": "gameId",
          "type": "uint256"
        }
      ],
      "name": "getGame",
      "outputs": [
        {
          "components": [
            {
              "internalType": "uint256",
              "name": "gameId",
              "type": "uint256"
            },
            {
              "internalType": "address",
              "name": "creator",
              "type": "address"
            },
            {
              "internalType": "string",
              "name": "name",
              "type": "string"
            },
            {
              "internalType": "uint256",
              "name": "createdAt",
              "type": "uint256"
            },
            {
              "internalType": "uint8",
              "name": "state",
              "type": "uint8"
            },
            {
              "internalType": "uint256",
              "name": "playerCount",
              "type": "uint256"
            },
            {
              "internalType": "bool",
              "name": "hasPassword",
              "type": "bool"
            }
          ],
          "internalType": "struct SecretSanta.GameInfo",
          "name": "",
          "type": "tuple"
        }
      ],
      "stateMutability": "view",
      "type": "function"
    },
    {
      "inputs": [
        {
          "internalType": "address",
          "name": "creator",
          "type": "address"
        }
      ],
      "name": "getGamesByCreator",
      "outputs": [
        {
          "internalType": "uint256[]",
          "name": "",
          "type": "uint256[]"
        }
      ],
      "stateMutability": "view",
      "type": "function"
    },
    {
      "inputs": [
        {
          "internalType": "address",
          "name": "player",
          "type": "address"
        }
      ],
      "name": "getGamesByPlayer",
      "outputs": [
        {
          "internalType": "uint256[]",
          "name": "",
          "type": "uint256[]"
        }
      ],
      "stateMutability": "view",
      "type": "function"
    },
    {
      "inputs": [
        {
          "internalType": "uint256",
          "name": "gameId",
          "type": "uint256"
        },
        {
          "internalType": "address",
          "name": "player",
          "type": "address"
        }
      ],
      "name": "getJoinStatus",
      "outputs": [
        {
          "internalType": "bool",
          "name": "hasPending",
          "type": "bool"
        },
        {
          "internalType": "bool",
          "name": "isDecrypted",
          "type": "bool"
        },
        {
          "internalType": "bool",
          "name": "isRegistered",
          "type": "bool"
        }
      ],
      "stateMutability": "view",
      "type": "function"
    },
    {
      "inputs": [
        {
          "internalType": "uint256",
          "name": "gameId",
          "type": "uint256"
        }
      ],
      "name": "getMyTarget",
      "outputs": [
        {
          "internalType": "euint32",
          "name": "",
          "type": "uint256"
        }
      ],
      "stateMutability": "view",
      "type": "function"
    },
    {
      "inputs": [
        {
          "internalType": "uint256",
          "name": "gameId",
          "type": "uint256"
        },
        {
          "internalType": "uint256",
          "name": "idx",
          "type": "uint256"
        }
      ],
      "name": "getParticipant",
      "outputs": [
        {
          "internalType": "address",
          "name": "",
          "type": "address"
        }
      ],
      "stateMutability": "view",
      "type": "function"
    },
    {
      "inputs": [
        {
          "internalType": "uint256",
          "name": "gameId",
          "type": "uint256"
        }
      ],
      "name": "getParticipantCount",
      "outputs": [
        {
          "internalType": "uint256",
          "name": "",
          "type": "uint256"
        }
      ],
      "stateMutability": "view",
      "type": "function"
    },
    {
      "inputs": [
        {
          "internalType": "uint256",
          "name": "gameId",
          "type": "uint256"
        }
      ],
      "name": "getParticipants",
      "outputs": [
        {
          "internalType": "address[]",
          "name": "",
          "type": "address[]"
        }
      ],
      "stateMutability": "view",
      "type": "function"
    },
    {
      "inputs": [
        {
          "internalType": "uint256",
          "name": "gameId",
          "type": "uint256"
        },
        {
          "internalType": "address",
          "name": "user",
          "type": "address"
        }
      ],
      "name": "isRegistered",
      "outputs": [
        {
          "internalType": "bool",
          "name": "",
          "type": "bool"
        }
      ],
      "stateMutability": "view",
      "type": "function"
    },
    {
      "inputs": [
        {
          "internalType": "uint256",
          "name": "offset",
          "type": "uint256"
        },
        {
          "internalType": "uint256",
          "name": "limit",
          "type": "uint256"
        }
      ],
      "name": "listGames",
      "outputs": [
        {
          "components": [
            {
              "internalType": "uint256",
              "name": "gameId",
              "type": "uint256"
            },
            {
              "internalType": "address",
              "name": "creator",
              "type": "address"
            },
            {
              "internalType": "string",
              "name": "name",
              "type": "string"
            },
            {
              "internalType": "uint256",
              "name": "createdAt",
              "type": "uint256"
            },
            {
              "internalType": "uint8",
              "name": "state",
              "type": "uint8"
            },
            {
              "internalType": "uint256",
              "name": "playerCount",
              "type": "uint256"
            },
            {
              "internalType": "bool",
              "name": "hasPassword",
              "type": "bool"
            }
          ],
          "internalType": "struct SecretSanta.GameInfo[]",
          "name": "",
          "type": "tuple[]"
        }
      ],
      "stateMutability": "view",
      "type": "function"
    },
    {
      "inputs": [
        {
          "internalType": "uint256",
          "name": "offset",
          "type": "uint256"
        },
        {
          "internalType": "uint256",
          "name": "limit",
          "type": "uint256"
        }
      ],
      "name": "listOpenGames",
      "outputs": [
        {
          "components": [
            {
              "internalType": "uint256",
              "name": "gameId",
              "type": "uint256"
            },
            {
              "internalType": "address",
              "name": "creator",
              "type": "address"
            },
            {
              "internalType": "string",
              "name": "name",
              "type": "string"
            },
            {
              "internalType": "uint256",
              "name": "createdAt",
              "type": "uint256"
            },
            {
              "internalType": "uint8",
              "name": "state",
              "type": "uint8"
            },
            {
              "internalType": "uint256",
              "name": "playerCount",
              "type": "uint256"
            },
            {
              "internalType": "bool",
              "name": "hasPassword",
              "type": "bool"
            }
          ],
          "internalType": "struct SecretSanta.GameInfo[]",
          "name": "",
          "type": "tuple[]"
        }
      ],
      "stateMutability": "view",
      "type": "function"
    },
    {
      "inputs": [
        {
          "internalType": "uint256",
          "name": "",
          "type": "uint256"
        },
        {
          "internalType": "address",
          "name": "",
          "type": "address"
        }
      ],
      "name": "playerIndex",
      "outputs": [
        {
          "internalType": "uint256",
          "name": "",
          "type": "uint256"
        }
      ],
      "stateMutability": "view",
      "type": "function"
    },
    {
      "inputs": [
        {
          "internalType": "uint256",
          "name": "gameId",
          "type": "uint256"
        },
        {
          "components": [
            {
              "internalType": "uint256",
              "name": "ctHash",
              "type": "uint256"
            },
            {
              "internalType": "uint8",
              "name": "securityZone",
              "type": "uint8"
            },
            {
              "internalType": "uint8",
              "name": "utype",
              "type": "uint8"
            },
            {
              "internalType": "bytes",
              "name": "signature",
              "type": "bytes"
            }
          ],
          "internalType": "struct InEuint32",
          "name": "password",
          "type": "tuple"
        },
        {
          "components": [
            {
              "internalType": "uint256",
              "name": "ctHash",
              "type": "uint256"
            },
            {
              "internalType": "uint8",
              "name": "securityZone",
              "type": "uint8"
            },
            {
              "internalType": "uint8",
              "name": "utype",
              "type": "uint8"
            },
            {
              "internalType": "bytes",
              "name": "signature",
              "type": "bytes"
            }
          ],
          "internalType": "struct InEuint32",
          "name": "userEntropy",
          "type": "tuple"
        }
      ],
      "name": "requestJoinGame",
      "outputs": [],
      "stateMutability": "nonpayable",
      "type": "function"
    },
    {
      "inputs": [
        {
          "internalType": "uint256",
          "name": "gameId",
          "type": "uint256"
        }
      ],
      "name": "revealGame",
      "outputs": [],
      "stateMutability": "nonpayable",
      "type": "function"
    }
  ],
  "bytecode": "0x6080604052348015600e575f80fd5b506126278061001c5f395ff3fe608060405234801561000f575f80fd5b5060043610610132575f3560e01c806384411c0a116100b4578063b81f6e1811610079578063b81f6e18146102d6578063c1e3bd3e1461031d578063da5051691461033d578063e3f7274014610350578063e7d3d72b14610363578063eb990c3914610376575f80fd5b806384411c0a1461025357806386ae5fec1461027d5780639083e01614610290578063a2f77bcc146102a3578063a3209bb3146102c3575f80fd5b806332906257116100fa57806332906257146101e05780634492b455146101f35780634d1975b41461020657806360170a3b1461020e578063771197ee14610240575f80fd5b80630483c98114610136578063064ffb2e1461015f5780631aed59f01461017f578063202b5b3f146101aa57806321d7127b146101cb575b5f80fd5b610149610144366004611e37565b610389565b6040516101569190611e8a565b60405180910390f35b61017261016d366004611e9c565b6103f2565b6040516101569190611f53565b61019261018d366004611e9c565b61060e565b6040516001600160a01b039091168152602001610156565b6101bd6101b8366004611fe6565b6106c1565b604051908152602001610156565b6101de6101d93660046120a6565b610830565b005b6101bd6101ee36600461210e565b6109eb565b610172610201366004611e9c565b610a16565b6101bd5f5481565b61022161021c366004612136565b610cd3565b6040805193151584529115156020840152151590820152606001610156565b6101de61024e366004612160565b610d52565b6101bd610261366004612136565b600260209081525f928352604080842090915290825290205481565b6101bd61028b366004612160565b610f2f565b61014961029e366004611e37565b610f66565b6102b66102b1366004612160565b610fcd565b6040516101569190612177565b6101de6102d1366004612160565b61110e565b61030d6102e4366004612136565b5f9182526002602090815260408084206001600160a01b03939093168452919052902054151590565b6040519015158152602001610156565b61033061032b366004612160565b61128a565b6040516101569190612189565b6101bd61034b36600461210e565b611316565b6101de61035e366004612160565b61132f565b6101bd610371366004611e9c565b611463565b6101bd610384366004612160565b611505565b6001600160a01b0381165f908152600560209081526040918290208054835181840281018401909452808452606093928301828280156103e657602002820191905f5260205f20905b8154815260200190600101908083116103d2575b50505050509050919050565b60605f54831061043457604080515f808252602082019092529061042c565b610419611dd7565b8152602001906001900390816104115790505b509050610608565b5f835f5461044291906121fd565b90508281111561044f5750815b5f8167ffffffffffffffff811115610469576104696121d5565b6040519080825280602002602001820160405280156104a257816020015b61048f611dd7565b8152602001906001900390816104875790505b5090505f5b82811015610603575f6001816104bd848a612210565b81526020019081526020015f2090506040518060e00160405280825f01548152602001826001015f9054906101000a90046001600160a01b03166001600160a01b0316815260200182600201805461051490612223565b80601f016020809104026020016040519081016040528092919081815260200182805461054090612223565b801561058b5780601f106105625761010080835404028352916020019161058b565b820191905f5260205f20905b81548152906001019060200180831161056e57829003601f168201915b505050918352505060038301546020820152600483015460409091019060ff1660028111156105bc576105bc612255565b60ff908116825260058401546020830152600884015416151560409091015283518490849081106105ef576105ef612269565b6020908102919091010152506001016104a7565b509150505b92915050565b5f80548310610630576040516309b3c62760e21b815260040160405180910390fd5b5f8381526001602052604090206005015482106106845760405162461bcd60e51b815260206004820152600d60248201526c0d2dcecc2d8d2c840d2dcc8caf609b1b60448201526064015b60405180910390fd5b5f8381526001602052604090206005018054839081106106a6576106a6612269565b5f918252602090912001546001600160a01b03169392505050565b5f805481806106cf8361227d565b909155505f81815260016020819052604090912082815590810180546001600160a01b031916331790559091506002810161070b8789836122de565b5042600382015560048101805460ff1916905561072f61072a86612402565b6115d6565b6006820181905560088201805460ff191685151517905561074f90611672565b82156107715761076161072a85612402565b6007820181905561077190611672565b60058082018054600181810183555f928352602080842090920180546001600160a01b03191633908117909155868452600283526040808520828652845280852083905560048452808520805480850182559086528486200188905581855294835284842080549283018155845291909220909101849055905183907fbff4580a5ee0b1eaa2ae15d6c8db6b31ba6864e3ee5e7a4391cfe3b1885aef309061081e908b908b9089906124c4565b60405180910390a35095945050505050565b5f548310610851576040516309b3c62760e21b815260040160405180910390fd5b5f83815260016020526040812090600482015460ff16600281111561087857610878612255565b146108965760405163239d573160e21b815260040160405180910390fd5b5f848152600260209081526040808320338452909152902054156108cd57604051630ea075bf60e21b815260040160405180910390fd5b5f84815260066020908152604080832033845290915290206002015460ff161561090a57604051631fa995af60e11b815260040160405180910390fd5b600881015460ff166109265761092084836116db565b50505050565b5f61093361072a85612402565b90505f6109448360070154836117a3565b90505f61095361072a86612402565b905061095e81611672565b610967826117e4565b60408051606081018252838152602080820184815260018385018181525f8d81526006855286812033808352955286812095518655925191850191909155516002909301805460ff191693151593909317909255915189917f45a9395af8803805c830b5c9f65e10cd8f75706b5220931c11184880350d489e91a350505050505050565b6004602052815f5260405f208181548110610a04575f80fd5b905f5260205f20015f91509150505481565b60605f805b5f54811015610a64575f8181526001602052604081206004015460ff166002811115610a4957610a49612255565b03610a5c5781610a588161227d565b9250505b600101610a1b565b50801580610a725750808410155b15610ab057604080515f8082526020820190925290610aa7565b610a94611dd7565b815260200190600190039081610a8c5790505b50915050610608565b5f610abb85836121fd565b905083811115610ac85750825b5f8167ffffffffffffffff811115610ae257610ae26121d5565b604051908082528060200260200182016040528015610b1b57816020015b610b08611dd7565b815260200190600190039081610b005790505b5090505f805f5b5f5481108015610b3157508483105b15610cc6575f8181526001602052604081206004015460ff166002811115610b5b57610b5b612255565b03610cb457888210610ca6575f81815260016020818152604092839020835160e08101855281548152928101546001600160a01b0316918301919091526002810180549193830191610bac90612223565b80601f0160208091040260200160405190810160405280929190818152602001828054610bd890612223565b8015610c235780601f10610bfa57610100808354040283529160200191610c23565b820191905f5260205f20905b815481529060010190602001808311610c0657829003601f168201915b505050918352505060038301546020820152600483015460409091019060ff166002811115610c5457610c54612255565b60ff90811682526005840154602083015260088401541615156040909101528551869086908110610c8757610c87612269565b60200260200101819052508380610c9d9061227d565b94505050610cb4565b81610cb08161227d565b9250505b80610cbe8161227d565b915050610b22565b5091979650505050505050565b5f8281526006602090815260408083206001600160a01b038516808552908352818420600290810154878652908452828520918552925282205460ff909116919015158215610d4b575f8581526006602090815260408083206001600160a01b0388168452909152902054610d479061180a565b9250505b9250925092565b5f548110610d73576040516309b3c62760e21b815260040160405180910390fd5b5f818152600160208190526040909120908101546001600160a01b03163314610daf576040516393687c0b60e01b815260040160405180910390fd5b5f600482015460ff166002811115610dc957610dc9612255565b14610de75760405163239d573160e21b815260040160405180910390fd5b600581015460031115610e0d57604051631ae49b5360e21b815260040160405180910390fd5b60058101545f610e2263ffffffff8316611825565b90505f610e5f610e508560060154610e4b600187610e4091906121fd565b63ffffffff16611825565b611830565b610e5a6001611825565b611871565b90505f5b83811015610eee575f610e88610e8284610e5a8563ffffffff16611825565b85611830565b5f8881526003602090815260408083208684529091529020819055600587018054919250610edc9183919085908110610ec357610ec3612269565b5f918252602090912001546001600160a01b03166118b2565b610ee581611672565b50600101610e63565b5060048401805460ff1916600117905560405185907f821e8f282903f17bca18208015c4de756a7bbcd272fce239c6701cf1f9aed620905f90a25050505050565b5f80548210610f51576040516309b3c62760e21b815260040160405180910390fd5b505f9081526001602052604090206005015490565b6001600160a01b0381165f908152600460209081526040918290208054835181840281018401909452808452606093928301828280156103e657602002820191905f5260205f20908154815260200190600101908083116103d25750505050509050919050565b610fd5611dd7565b5f548210610ff6576040516309b3c62760e21b815260040160405180910390fd5b5f82815260016020818152604092839020835160e08101855281548152928101546001600160a01b031691830191909152600281018054919383019161103b90612223565b80601f016020809104026020016040519081016040528092919081815260200182805461106790612223565b80156110b25780601f10611089576101008083540402835291602001916110b2565b820191905f5260205f20905b81548152906001019060200180831161109557829003601f168201915b505050918352505060038301546020820152600483015460409091019060ff1660028111156110e3576110e3612255565b60ff908116825260058401546020830152600890930154909216151560409092019190915292915050565b5f54811061112f576040516309b3c62760e21b815260040160405180910390fd5b5f81815260016020526040812090600482015460ff16600281111561115657611156612255565b146111745760405163239d573160e21b815260040160405180910390fd5b5f82815260066020908152604080832033845290915290206002015460ff166111b0576040516391e6434360e01b815260040160405180910390fd5b5f8281526006602090815260408083203384529091528120805490919081906111d89061180a565b91509150806111fa57604051639bbc3a6360e01b815260040160405180910390fd5b81611248575f85815260066020908152604080832033845290915280822082815560018101929092556002909101805460ff1916905580516303e4e47560e21b815290519081900360040190fd5b611256858460010154611925565b5050505f9182525060066020908152604080832033845290915281208181556001810191909155600201805460ff19169055565b60605f5482106112ad576040516309b3c62760e21b815260040160405180910390fd5b5f82815260016020908152604091829020600501805483518184028101840190945280845290918301828280156103e657602002820191905f5260205f20905b81546001600160a01b031681526001909101906020018083116112ed5750505050509050919050565b6005602052815f5260405f208181548110610a04575f80fd5b5f548110611350576040516309b3c62760e21b815260040160405180910390fd5b5f818152600160208190526040909120908101546001600160a01b0316331461138c576040516393687c0b60e01b815260040160405180910390fd5b6001600482015460ff1660028111156113a7576113a7612255565b146113c557604051634065aaf160e11b815260040160405180910390fd5b60058101545f5b81811015611424575f5b8281101561141b575f85815260036020908152604080832085845290915290205460058501805461141392919084908110610ec357610ec3612269565b6001016113d6565b506001016113cc565b5060048201805460ff1916600217905560405183907fab1df3e178b47bd223536fd1d2353abb8810e22f02f28cfa9b5843d31a2b162c905f90a2505050565b5f80548310611485576040516309b3c62760e21b815260040160405180910390fd5b60025f8481526001602052604090206004015460ff1660028111156114ac576114ac612255565b146114e85760405162461bcd60e51b815260206004820152600c60248201526b1b9bdd081c995d99585b195960a21b604482015260640161067b565b505f91825260036020908152604080842092845291905290205490565b5f80548210611527576040516309b3c62760e21b815260040160405180910390fd5b5f82815260016020526040812090600482015460ff16600281111561154e5761154e612255565b0361156c57604051633a5f7b5760e01b815260040160405180910390fd5b5f838152600260209081526040808320338452909152812054908190036115a65760405163aba4733960e01b815260040160405180910390fd5b5f848152600360205260408120906115bf6001846121fd565b81526020019081526020015f205492505050919050565b60408101515f9060049060ff1681146116155760408084015190516367cf307160e01b815260ff9182166004820152908216602482015260440161067b565b60408051608080820183525f808352602080840182905283850191909152606092830183905283519182018452865182528087015160ff1690820152600492810192909252808501519082015261166b90611982565b9392505050565b604051631974142760e21b81526004810182905230602482015273ea30c4b8b44078bbf8a6ef5b9f1ec1626c7848d9906365d0509c906044015f604051808303815f87803b1580156116c2575f80fd5b505af11580156116d4573d5f803e3d5ffd5b5050505050565b5f828152600160208181526040808420600581018054948501815580865283862090940180546001600160a01b03191633908117909155935487865260028452828620948652939092529092205560068101546117439061173e61072a85612402565b6119fd565b6006820181905561175390611672565b335f81815260056020908152604080832080546001810182559084529183209091018690555185917f87969bc7faf902221a147b95ceba76e011c5efb0339a0a8ee7a2bb82d9cfbbd691a3505050565b5f6117ad83611a3e565b6117bd576117ba5f611825565b92505b6117c682611a3e565b6117d6576117d35f611825565b91505b61166b600484846018611a47565b6117ed81611a3e565b6117fd576117fa5f611ae8565b90505b61180681611af3565b5050565b5f805f8061181785611b61565b901515969095509350505050565b5f610608825f611bdf565b5f61183a83611a3e565b61184a576118475f611825565b92505b61185382611a3e565b611863576118605f611825565b91505b61166b60048484600e611a47565b5f61187b83611a3e565b61188b576118885f611825565b92505b61189482611a3e565b6118a4576118a15f611825565b91505b61166b600484846008611a47565b604051631974142760e21b8152600481018390526001600160a01b038216602482015273ea30c4b8b44078bbf8a6ef5b9f1ec1626c7848d9906365d0509c906044015f604051808303815f87803b15801561190b575f80fd5b505af115801561191d573d5f803e3d5ffd5b505050505050565b5f828152600160208181526040808420600581018054948501815580865283862090940180546001600160a01b031916339081179091559354878652600284528286209486529390925290922055600681015461174390836119fd565b6040516313fce3b160e11b81525f9073ea30c4b8b44078bbf8a6ef5b9f1ec1626c7848d9906327f9c762906119bd90859033906004016124fb565b6020604051808303815f875af11580156119d9573d5f803e3d5ffd5b505050506040513d601f19601f820116820180604052508101906106089190612552565b5f611a0783611a3e565b611a1757611a145f611825565b92505b611a2082611a3e565b611a3057611a2d5f611825565b91505b61166b600484846009611a47565b5f811515610608565b5f73ea30c4b8b44078bbf8a6ef5b9f1ec1626c7848d9631888debd8684611a6e8888611bf5565b604080515f815260208101918290526001600160e01b031960e087901b16909152611a9f9392919060248101612569565b6020604051808303815f875af1158015611abb573d5f803e3d5ffd5b505050506040513d601f19601f82011682018060405250810190611adf9190612552565b95945050505050565b5f610608825f611c5e565b604051630828982760e01b8152600481018290523360248201525f9073ea30c4b8b44078bbf8a6ef5b9f1ec1626c7848d9906308289827906044015f604051808303815f87803b158015611b45575f80fd5b505af1158015611b57573d5f803e3d5ffd5b5093949350505050565b60405163458693c960e01b8152600481018290525f90819073ea30c4b8b44078bbf8a6ef5b9f1ec1626c7848d99063458693c9906024016040805180830381865afa158015611bb2573d5f803e3d5ffd5b505050506040513d601f19601f82011682018060405250810190611bd691906125c3565b91509150915091565b5f80611bed84600485611c72565b949350505050565b60408051600280825260608083018452925f92919060208301908036833701905050905083815f81518110611c2c57611c2c612269565b6020026020010181815250508281600181518110611c4c57611c4c612269565b60209081029190910101529392505050565b5f808315611c6a575060015b5f611adf825f865b604080515f8082526020820190925273ea30c4b8b44078bbf8a6ef5b9f1ec1626c7848d990631888debd908590601a90611cb8898960ff16611cb38a611d17565b611d4c565b6040518563ffffffff1660e01b8152600401611cd79493929190612569565b6020604051808303815f875af1158015611cf3573d5f803e3d5ffd5b505050506040513d601f19601f82011682018060405250810190611bed9190612552565b5f808260030b1215611d42576040516311ead17f60e31b8152600383900b600482015260240161067b565b5063ffffffff1690565b604080516003808252608082019092526060915f919060208201848036833701905050905084815f81518110611d8457611d84612269565b6020026020010181815250508381600181518110611da457611da4612269565b6020026020010181815250508281600281518110611dc457611dc4612269565b6020908102919091010152949350505050565b6040518060e001604052805f81526020015f6001600160a01b03168152602001606081526020015f81526020015f60ff1681526020015f81526020015f151581525090565b80356001600160a01b0381168114611e32575f80fd5b919050565b5f60208284031215611e47575f80fd5b61166b82611e1c565b5f815180845260208085019450602084015f5b83811015611e7f57815187529582019590820190600101611e63565b509495945050505050565b602081525f61166b6020830184611e50565b5f8060408385031215611ead575f80fd5b50508035926020909101359150565b5f81518084528060208401602086015e5f602082860101526020601f19601f83011685010191505092915050565b8051825260018060a01b0360208201511660208301525f604082015160e06040850152611f1a60e0850182611ebc565b90506060830151606085015260ff608084015116608085015260a083015160a085015260c0830151151560c08501528091505092915050565b5f60208083016020845280855180835260408601915060408160051b8701019250602087015f5b82811015611fa857603f19888603018452611f96858351611eea565b94509285019290850190600101611f7a565b5092979650505050505050565b5f60808284031215611fc5575f80fd5b50919050565b8015158114611fd8575f80fd5b50565b8035611e3281611fcb565b5f805f805f60808688031215611ffa575f80fd5b853567ffffffffffffffff80821115612011575f80fd5b818801915088601f830112612024575f80fd5b813581811115612032575f80fd5b896020828501011115612043575f80fd5b60209283019750955090870135908082111561205d575f80fd5b61206989838a01611fb5565b9450604088013591508082111561207e575f80fd5b5061208b88828901611fb5565b92505061209a60608701611fdb565b90509295509295909350565b5f805f606084860312156120b8575f80fd5b83359250602084013567ffffffffffffffff808211156120d6575f80fd5b6120e287838801611fb5565b935060408601359150808211156120f7575f80fd5b5061210486828701611fb5565b9150509250925092565b5f806040838503121561211f575f80fd5b61212883611e1c565b946020939093013593505050565b5f8060408385031215612147575f80fd5b8235915061215760208401611e1c565b90509250929050565b5f60208284031215612170575f80fd5b5035919050565b602081525f61166b6020830184611eea565b602080825282518282018190525f9190848201906040850190845b818110156121c95783516001600160a01b0316835292840192918401916001016121a4565b50909695505050505050565b634e487b7160e01b5f52604160045260245ffd5b634e487b7160e01b5f52601160045260245ffd5b81810381811115610608576106086121e9565b80820180821115610608576106086121e9565b600181811c9082168061223757607f821691505b602082108103611fc557634e487b7160e01b5f52602260045260245ffd5b634e487b7160e01b5f52602160045260245ffd5b634e487b7160e01b5f52603260045260245ffd5b5f6001820161228e5761228e6121e9565b5060010190565b601f8211156122d957805f5260205f20601f840160051c810160208510156122ba5750805b601f840160051c820191505b818110156116d4575f81556001016122c6565b505050565b67ffffffffffffffff8311156122f6576122f66121d5565b61230a836123048354612223565b83612295565b5f601f84116001811461233b575f85156123245750838201355b5f19600387901b1c1916600186901b1783556116d4565b5f83815260208120601f198716915b8281101561236a578685013582556020948501946001909201910161234a565b5086821015612386575f1960f88860031b161c19848701351681555b505060018560011b0183555050505050565b6040516080810167ffffffffffffffff811182821017156123bb576123bb6121d5565b60405290565b604051601f8201601f1916810167ffffffffffffffff811182821017156123ea576123ea6121d5565b604052919050565b803560ff81168114611e32575f80fd5b5f60808236031215612412575f80fd5b61241a612398565b82358152602061242b8185016123f2565b8183015261243b604085016123f2565b6040830152606084013567ffffffffffffffff8082111561245a575f80fd5b9085019036601f83011261246c575f80fd5b81358181111561247e5761247e6121d5565b612490601f8201601f191685016123c1565b915080825236848285010111156124a5575f80fd5b80848401858401375f9082019093019290925250606082015292915050565b60408152826040820152828460608301375f60608483018101919091529115156020820152601f909201601f191690910101919050565b604081528251604082015260ff602084015116606082015260ff60408401511660808201525f6060840151608060a084015261253a60c0840182611ebc565b91505060018060a01b03831660208301529392505050565b5f60208284031215612562575f80fd5b5051919050565b60ff851681525f6020851061258c57634e487b7160e01b5f52602160045260245ffd5b846020830152608060408301526125a66080830185611e50565b82810360608401526125b88185611e50565b979650505050505050565b5f80604083850312156125d4575f80fd5b8251915060208301516125e681611fcb565b80915050925092905056fea264697066735822122081fa55789080f48e921fdef50eb64d8dd660b68ebf9406c7b74b4f7d7d9677f464736f6c63430008190033",
  "linkReferences": {},
  "deployedLinkReferences": {}
}