{
  "address": "0xEf021E90f4409f6f37d5fd0947dCBD10a5A76393",
  "abi": [
    {
      "inputs": [],
      "name": "AlreadyRegistered",
      "type": "error"
    },
    {
      "inputs": [],
      "name": "DecryptionNotReady",
      "type": "error"
    },
    {
      "inputs": [],
      "name": "GameNotFound",
      "type": "error"
    },
    {
      "inputs": [],
      "name": "GameNotStarted",
      "type": "error"
    },
    {
      "inputs": [
        {
          "internalType": "uint8",
          "name": "got",
          "type": "uint8"
        },
        {
          "internalType": "uint8",
          "name": "expected",
          "type": "uint8"
        }
      ],
      "name": "InvalidEncryptedInput",
      "type": "error"
    },
    {
      "inputs": [],
      "name": "InvalidPassword",
      "type": "error"
    },
    {
      "inputs": [],
      "name": "NeedAtLeast3Players",
      "type": "error"
    },
    {
      "inputs": [],
      "name": "NoPendingJoin",
      "type": "error"
    },
    {
      "inputs": [],
      "name": "NotActive",
      "type": "error"
    },
    {
      "inputs": [],
      "name": "NotCreator",
      "type": "error"
    },
    {
      "inputs": [],
      "name": "NotRegistered",
      "type": "error"
    },
    {
      "inputs": [],
      "name": "NotRegistrationPhase",
      "type": "error"
    },
    {
      "inputs": [
        {
          "internalType": "int32",
          "name": "value",
          "type": "int32"
        }
      ],
      "name": "SecurityZoneOutOfBounds",
      "type": "error"
    },
    {
      "anonymous": false,
      "inputs": [
        {
          "indexed": true,
          "internalType": "uint256",
          "name": "gameId",
          "type": "uint256"
        },
        {
          "indexed": true,
          "internalType": "address",
          "name": "creator",
          "type": "address"
        },
        {
          "indexed": false,
          "internalType": "string",
          "name": "name",
          "type": "string"
        },
        {
          "indexed": false,
          "internalType": "bool",
          "name": "hasPassword",
          "type": "bool"
        }
      ],
      "name": "GameCreated",
      "type": "event"
    },
    {
      "anonymous": false,
      "inputs": [
        {
          "indexed": true,
          "internalType": "uint256",
          "name": "gameId",
          "type": "uint256"
        }
      ],
      "name": "GameFinalized",
      "type": "event"
    },
    {
      "anonymous": false,
      "inputs": [
        {
          "indexed": true,
          "internalType": "uint256",
          "name": "gameId",
          "type": "uint256"
        }
      ],
      "name": "GameRevealed",
      "type": "event"
    },
    {
      "anonymous": false,
      "inputs": [
        {
          "indexed": true,
          "internalType": "uint256",
          "name": "gameId",
          "type": "uint256"
        },
        {
          "indexed": true,
          "internalType": "address",
          "name": "player",
          "type": "address"
        }
      ],
      "name": "JoinRequested",
      "type": "event"
    },
    {
      "anonymous": false,
      "inputs": [
        {
          "indexed": true,
          "internalType": "uint256",
          "name": "gameId",
          "type": "uint256"
        },
        {
          "indexed": true,
          "internalType": "address",
          "name": "player",
          "type": "address"
        },
        {
          "indexed": false,
          "internalType": "string",
          "name": "name",
          "type": "string"
        }
      ],
      "name": "PlayerJoined",
      "type": "event"
    },
    {
      "inputs": [
        {
          "internalType": "uint256",
          "name": "gameId",
          "type": "uint256"
        }
      ],
      "name": "completeJoinGame",
      "outputs": [],
      "stateMutability": "nonpayable",
      "type": "function"
    },
    {
      "inputs": [
        {
          "internalType": "string",
          "name": "name",
          "type": "string"
        },
        {
          "internalType": "string",
          "name": "creatorName",
          "type": "string"
        },
        {
          "components": [
            {
              "internalType": "uint256",
              "name": "ctHash",
              "type": "uint256"
            },
            {
              "internalType": "uint8",
              "name": "securityZone",
              "type": "uint8"
            },
            {
              "internalType": "uint8",
              "name": "utype",
              "type": "uint8"
            },
            {
              "internalType": "bytes",
              "name": "signature",
              "type": "bytes"
            }
          ],
          "internalType": "struct InEuint32",
          "name": "creatorEntropy",
          "type": "tuple"
        },
        {
          "components": [
            {
              "internalType": "uint256",
              "name": "ctHash",
              "type": "uint256"
            },
            {
              "internalType": "uint8",
              "name": "securityZone",
              "type": "uint8"
            },
            {
              "internalType": "uint8",
              "name": "utype",
              "type": "uint8"
            },
            {
              "internalType": "bytes",
              "name": "signature",
              "type": "bytes"
            }
          ],
          "internalType": "struct InEuint32",
          "name": "password",
          "type": "tuple"
        },
        {
          "internalType": "bool",
          "name": "hasPassword",
          "type": "bool"
        }
      ],
      "name": "createGame",
      "outputs": [
        {
          "internalType": "uint256",
          "name": "gameId",
          "type": "uint256"
        }
      ],
      "stateMutability": "nonpayable",
      "type": "function"
    },
    {
      "inputs": [
        {
          "internalType": "uint256",
          "name": "gameId",
          "type": "uint256"
        }
      ],
      "name": "finalizeGame",
      "outputs": [],
      "stateMutability": "nonpayable",
      "type": "function"
    },
    {
      "inputs": [],
      "name": "gameCount",
      "outputs": [
        {
          "internalType": "uint256",
          "name": "",
          "type": "uint256"
        }
      ],
      "stateMutability": "view",
      "type": "function"
    },
    {
      "inputs": [
        {
          "internalType": "address",
          "name": "",
          "type": "address"
        },
        {
          "internalType": "uint256",
          "name": "",
          "type": "uint256"
        }
      ],
      "name": "gamesByCreator",
      "outputs": [
        {
          "internalType": "uint256",
          "name": "",
          "type": "uint256"
        }
      ],
      "stateMutability": "view",
      "type": "function"
    },
    {
      "inputs": [
        {
          "internalType": "address",
          "name": "",
          "type": "address"
        },
        {
          "internalType": "uint256",
          "name": "",
          "type": "uint256"
        }
      ],
      "name": "gamesByPlayer",
      "outputs": [
        {
          "internalType": "uint256",
          "name": "",
          "type": "uint256"
        }
      ],
      "stateMutability": "view",
      "type": "function"
    },
    {
      "inputs": [
        {
          "internalType": "uint256",
          "name": "gameId",
          "type": "uint256"
        },
        {
          "internalType": "uint256",
          "name": "idx",
          "type": "uint256"
        }
      ],
      "name": "getDestination",
      "outputs": [
        {
          "internalType": "euint32",
          "name": "",
          "type": "uint256"
        }
      ],
      "stateMutability": "view",
      "type": "function"
    },
    {
      "inputs": [
        {
          "internalType": "uint256",
          "name": "gameId",
          "type": "uint256"
        }
      ],
      "name": "getGame",
      "outputs": [
        {
          "components": [
            {
              "internalType": "uint256",
              "name": "gameId",
              "type": "uint256"
            },
            {
              "internalType": "address",
              "name": "creator",
              "type": "address"
            },
            {
              "internalType": "string",
              "name": "name",
              "type": "string"
            },
            {
              "internalType": "uint256",
              "name": "createdAt",
              "type": "uint256"
            },
            {
              "internalType": "uint8",
              "name": "state",
              "type": "uint8"
            },
            {
              "internalType": "uint256",
              "name": "playerCount",
              "type": "uint256"
            },
            {
              "internalType": "bool",
              "name": "hasPassword",
              "type": "bool"
            }
          ],
          "internalType": "struct SecretSanta.GameInfo",
          "name": "",
          "type": "tuple"
        }
      ],
      "stateMutability": "view",
      "type": "function"
    },
    {
      "inputs": [
        {
          "internalType": "address",
          "name": "creator",
          "type": "address"
        }
      ],
      "name": "getGamesByCreator",
      "outputs": [
        {
          "internalType": "uint256[]",
          "name": "",
          "type": "uint256[]"
        }
      ],
      "stateMutability": "view",
      "type": "function"
    },
    {
      "inputs": [
        {
          "internalType": "address",
          "name": "player",
          "type": "address"
        }
      ],
      "name": "getGamesByPlayer",
      "outputs": [
        {
          "internalType": "uint256[]",
          "name": "",
          "type": "uint256[]"
        }
      ],
      "stateMutability": "view",
      "type": "function"
    },
    {
      "inputs": [
        {
          "internalType": "uint256",
          "name": "gameId",
          "type": "uint256"
        },
        {
          "internalType": "address",
          "name": "player",
          "type": "address"
        }
      ],
      "name": "getJoinStatus",
      "outputs": [
        {
          "internalType": "bool",
          "name": "hasPending",
          "type": "bool"
        },
        {
          "internalType": "bool",
          "name": "isDecrypted",
          "type": "bool"
        },
        {
          "internalType": "bool",
          "name": "isRegistered",
          "type": "bool"
        }
      ],
      "stateMutability": "view",
      "type": "function"
    },
    {
      "inputs": [
        {
          "internalType": "uint256",
          "name": "gameId",
          "type": "uint256"
        }
      ],
      "name": "getMyTarget",
      "outputs": [
        {
          "internalType": "euint32",
          "name": "",
          "type": "uint256"
        }
      ],
      "stateMutability": "view",
      "type": "function"
    },
    {
      "inputs": [
        {
          "internalType": "uint256",
          "name": "gameId",
          "type": "uint256"
        },
        {
          "internalType": "uint256",
          "name": "idx",
          "type": "uint256"
        }
      ],
      "name": "getParticipant",
      "outputs": [
        {
          "internalType": "address",
          "name": "",
          "type": "address"
        }
      ],
      "stateMutability": "view",
      "type": "function"
    },
    {
      "inputs": [
        {
          "internalType": "uint256",
          "name": "gameId",
          "type": "uint256"
        }
      ],
      "name": "getParticipantCount",
      "outputs": [
        {
          "internalType": "uint256",
          "name": "",
          "type": "uint256"
        }
      ],
      "stateMutability": "view",
      "type": "function"
    },
    {
      "inputs": [
        {
          "internalType": "uint256",
          "name": "gameId",
          "type": "uint256"
        }
      ],
      "name": "getParticipantNames",
      "outputs": [
        {
          "internalType": "string[]",
          "name": "",
          "type": "string[]"
        }
      ],
      "stateMutability": "view",
      "type": "function"
    },
    {
      "inputs": [
        {
          "internalType": "uint256",
          "name": "gameId",
          "type": "uint256"
        }
      ],
      "name": "getParticipants",
      "outputs": [
        {
          "internalType": "address[]",
          "name": "",
          "type": "address[]"
        }
      ],
      "stateMutability": "view",
      "type": "function"
    },
    {
      "inputs": [
        {
          "internalType": "uint256",
          "name": "gameId",
          "type": "uint256"
        },
        {
          "internalType": "address",
          "name": "player",
          "type": "address"
        }
      ],
      "name": "getPlayerName",
      "outputs": [
        {
          "internalType": "string",
          "name": "",
          "type": "string"
        }
      ],
      "stateMutability": "view",
      "type": "function"
    },
    {
      "inputs": [
        {
          "internalType": "uint256",
          "name": "gameId",
          "type": "uint256"
        },
        {
          "internalType": "address",
          "name": "user",
          "type": "address"
        }
      ],
      "name": "isRegistered",
      "outputs": [
        {
          "internalType": "bool",
          "name": "",
          "type": "bool"
        }
      ],
      "stateMutability": "view",
      "type": "function"
    },
    {
      "inputs": [
        {
          "internalType": "uint256",
          "name": "offset",
          "type": "uint256"
        },
        {
          "internalType": "uint256",
          "name": "limit",
          "type": "uint256"
        }
      ],
      "name": "listGames",
      "outputs": [
        {
          "components": [
            {
              "internalType": "uint256",
              "name": "gameId",
              "type": "uint256"
            },
            {
              "internalType": "address",
              "name": "creator",
              "type": "address"
            },
            {
              "internalType": "string",
              "name": "name",
              "type": "string"
            },
            {
              "internalType": "uint256",
              "name": "createdAt",
              "type": "uint256"
            },
            {
              "internalType": "uint8",
              "name": "state",
              "type": "uint8"
            },
            {
              "internalType": "uint256",
              "name": "playerCount",
              "type": "uint256"
            },
            {
              "internalType": "bool",
              "name": "hasPassword",
              "type": "bool"
            }
          ],
          "internalType": "struct SecretSanta.GameInfo[]",
          "name": "",
          "type": "tuple[]"
        }
      ],
      "stateMutability": "view",
      "type": "function"
    },
    {
      "inputs": [
        {
          "internalType": "uint256",
          "name": "offset",
          "type": "uint256"
        },
        {
          "internalType": "uint256",
          "name": "limit",
          "type": "uint256"
        }
      ],
      "name": "listOpenGames",
      "outputs": [
        {
          "components": [
            {
              "internalType": "uint256",
              "name": "gameId",
              "type": "uint256"
            },
            {
              "internalType": "address",
              "name": "creator",
              "type": "address"
            },
            {
              "internalType": "string",
              "name": "name",
              "type": "string"
            },
            {
              "internalType": "uint256",
              "name": "createdAt",
              "type": "uint256"
            },
            {
              "internalType": "uint8",
              "name": "state",
              "type": "uint8"
            },
            {
              "internalType": "uint256",
              "name": "playerCount",
              "type": "uint256"
            },
            {
              "internalType": "bool",
              "name": "hasPassword",
              "type": "bool"
            }
          ],
          "internalType": "struct SecretSanta.GameInfo[]",
          "name": "",
          "type": "tuple[]"
        }
      ],
      "stateMutability": "view",
      "type": "function"
    },
    {
      "inputs": [
        {
          "internalType": "uint256",
          "name": "",
          "type": "uint256"
        },
        {
          "internalType": "address",
          "name": "",
          "type": "address"
        }
      ],
      "name": "playerIndex",
      "outputs": [
        {
          "internalType": "uint256",
          "name": "",
          "type": "uint256"
        }
      ],
      "stateMutability": "view",
      "type": "function"
    },
    {
      "inputs": [
        {
          "internalType": "uint256",
          "name": "",
          "type": "uint256"
        },
        {
          "internalType": "address",
          "name": "",
          "type": "address"
        }
      ],
      "name": "playerNames",
      "outputs": [
        {
          "internalType": "string",
          "name": "",
          "type": "string"
        }
      ],
      "stateMutability": "view",
      "type": "function"
    },
    {
      "inputs": [
        {
          "internalType": "uint256",
          "name": "gameId",
          "type": "uint256"
        },
        {
          "internalType": "string",
          "name": "playerName",
          "type": "string"
        },
        {
          "components": [
            {
              "internalType": "uint256",
              "name": "ctHash",
              "type": "uint256"
            },
            {
              "internalType": "uint8",
              "name": "securityZone",
              "type": "uint8"
            },
            {
              "internalType": "uint8",
              "name": "utype",
              "type": "uint8"
            },
            {
              "internalType": "bytes",
              "name": "signature",
              "type": "bytes"
            }
          ],
          "internalType": "struct InEuint32",
          "name": "password",
          "type": "tuple"
        },
        {
          "components": [
            {
              "internalType": "uint256",
              "name": "ctHash",
              "type": "uint256"
            },
            {
              "internalType": "uint8",
              "name": "securityZone",
              "type": "uint8"
            },
            {
              "internalType": "uint8",
              "name": "utype",
              "type": "uint8"
            },
            {
              "internalType": "bytes",
              "name": "signature",
              "type": "bytes"
            }
          ],
          "internalType": "struct InEuint32",
          "name": "userEntropy",
          "type": "tuple"
        }
      ],
      "name": "requestJoinGame",
      "outputs": [],
      "stateMutability": "nonpayable",
      "type": "function"
    },
    {
      "inputs": [
        {
          "internalType": "uint256",
          "name": "gameId",
          "type": "uint256"
        }
      ],
      "name": "revealGame",
      "outputs": [],
      "stateMutability": "nonpayable",
      "type": "function"
    }
  ],
  "transactionHash": "0x00778c53ffc245299b0f6fb7d1046ddb53f0dd3a1d6d3d1c6906508c0cb1b67e",
  "args": [],
  "numDeployments": 1,
  "solcInputHash": "5f50066905fcd522e3c6b8de5f290286",
  "bytecode": "0x6080604052348015600e575f80fd5b50612d898061001c5f395ff3fe608060405234801561000f575f80fd5b5060043610610153575f3560e01c806386ae5fec116100bf578063bd1936ce11610079578063bd1936ce14610371578063c1e3bd3e14610391578063da505169146103b1578063e3f72740146103c4578063e7d3d72b146103d7578063eb990c39146103ea575f80fd5b806386ae5fec146102be5780639083e016146102d1578063a2f77bcc146102e4578063a3209bb314610304578063a79cdd3014610317578063b81f6e181461032a575f80fd5b80634492b455116101105780634492b455146102215780634d1975b41461023457806352d663771461023c57806360170a3b1461024f578063771197ee1461028157806384411c0a14610294575f80fd5b80630483c98114610157578063064ffb2e146101805780630e9b0740146101a05780631aed59f0146101c05780632647eace146101eb5780633290625714610200575b5f80fd5b61016a6101653660046123e9565b6103fd565b604051610177919061243c565b60405180910390f35b61019361018e36600461244e565b610466565b6040516101779190612505565b6101b36101ae366004612567565b610682565b6040516101779190612591565b6101d36101ce36600461244e565b610724565b6040516001600160a01b039091168152602001610177565b6101fe6101f93660046125fe565b6107d7565b005b61021361020e36600461268f565b6109b7565b604051908152602001610177565b61019361022f36600461244e565b6109e2565b6102135f5481565b6101b361024a366004612567565b610c9f565b61026261025d366004612567565b610d53565b6040805193151584529115156020840152151590820152606001610177565b6101fe61028f3660046126b7565b610dd1565b6102136102a2366004612567565b600260209081525f928352604080842090915290825290205481565b6102136102cc3660046126b7565b610fae565b61016a6102df3660046123e9565b610fe5565b6102f76102f23660046126b7565b61104c565b60405161017791906126ce565b6101fe6103123660046126b7565b61118d565b6102136103253660046126ed565b611373565b610361610338366004612567565b5f9182526002602090815260408084206001600160a01b03939093168452919052902054151590565b6040519015158152602001610177565b61038461037f3660046126b7565b61154b565b60405161017791906127b1565b6103a461039f3660046126b7565b611730565b6040516101779190612806565b6102136103bf36600461268f565b6117bc565b6101fe6103d23660046126b7565b6117d5565b6102136103e536600461244e565b611909565b6102136103f83660046126b7565b6119ab565b6001600160a01b0381165f9081526005602090815260409182902080548351818402810184019094528084526060939283018282801561045a57602002820191905f5260205f20905b815481526020019060010190808311610446575b50505050509050919050565b60605f5483106104a857604080515f80825260208201909252906104a0565b61048d612337565b8152602001906001900390816104855790505b50905061067c565b5f835f546104b6919061287a565b9050828111156104c35750815b5f8167ffffffffffffffff8111156104dd576104dd612852565b60405190808252806020026020018201604052801561051657816020015b610503612337565b8152602001906001900390816104fb5790505b5090505f5b82811015610677575f600181610531848a61288d565b81526020019081526020015f2090506040518060e00160405280825f01548152602001826001015f9054906101000a90046001600160a01b03166001600160a01b03168152602001826002018054610588906128a0565b80601f01602080910402602001604051908101604052809291908181526020018280546105b4906128a0565b80156105ff5780601f106105d6576101008083540402835291602001916105ff565b820191905f5260205f20905b8154815290600101906020018083116105e257829003601f168201915b505050918352505060038301546020820152600483015460409091019060ff166002811115610630576106306128d2565b60ff90811682526005840154602083015260088401541615156040909101528351849084908110610663576106636128e6565b60209081029190910101525060010161051b565b509150505b92915050565b600760209081525f9283526040808420909152908252902080546106a5906128a0565b80601f01602080910402602001604051908101604052809291908181526020018280546106d1906128a0565b801561071c5780601f106106f35761010080835404028352916020019161071c565b820191905f5260205f20905b8154815290600101906020018083116106ff57829003601f168201915b505050505081565b5f80548310610746576040516309b3c62760e21b815260040160405180910390fd5b5f83815260016020526040902060050154821061079a5760405162461bcd60e51b815260206004820152600d60248201526c0d2dcecc2d8d2c840d2dcc8caf609b1b60448201526064015b60405180910390fd5b5f8381526001602052604090206005018054839081106107bc576107bc6128e6565b5f918252602090912001546001600160a01b03169392505050565b5f5485106107f8576040516309b3c62760e21b815260040160405180910390fd5b5f85815260016020526040812090600482015460ff16600281111561081f5761081f6128d2565b1461083d5760405163239d573160e21b815260040160405180910390fd5b5f8681526002602090815260408083203384529091529020541561087457604051630ea075bf60e21b815260040160405180910390fd5b600881015460ff166108925761088c86868685611a7c565b506109b0565b5f6108a461089f85612964565b611b77565b90505f6108b5836007015483611c13565b90505f6108c461089f86612964565b90506108cf81611c54565b6108d882611cb6565b604051806080016040528083815260200182815260200189898080601f0160208091040260200160405190810160405280939291908181526020018383808284375f9201829052509385525050600160209384018190528d83526006845260408084203385528552928390208551815593850151908401555082015160028201906109639082612a6f565b50606091909101516003909101805460ff191691151591909117905560405133908a907f45a9395af8803805c830b5c9f65e10cd8f75706b5220931c11184880350d489e905f90a3505050505b5050505050565b6004602052815f5260405f2081815481106109d0575f80fd5b905f5260205f20015f91509150505481565b60605f805b5f54811015610a30575f8181526001602052604081206004015460ff166002811115610a1557610a156128d2565b03610a285781610a2481612b2b565b9250505b6001016109e7565b50801580610a3e5750808410155b15610a7c57604080515f8082526020820190925290610a73565b610a60612337565b815260200190600190039081610a585790505b5091505061067c565b5f610a87858361287a565b905083811115610a945750825b5f8167ffffffffffffffff811115610aae57610aae612852565b604051908082528060200260200182016040528015610ae757816020015b610ad4612337565b815260200190600190039081610acc5790505b5090505f805f5b5f5481108015610afd57508483105b15610c92575f8181526001602052604081206004015460ff166002811115610b2757610b276128d2565b03610c8057888210610c72575f81815260016020818152604092839020835160e08101855281548152928101546001600160a01b0316918301919091526002810180549193830191610b78906128a0565b80601f0160208091040260200160405190810160405280929190818152602001828054610ba4906128a0565b8015610bef5780601f10610bc657610100808354040283529160200191610bef565b820191905f5260205f20905b815481529060010190602001808311610bd257829003601f168201915b505050918352505060038301546020820152600483015460409091019060ff166002811115610c2057610c206128d2565b60ff90811682526005840154602083015260088401541615156040909101528551869086908110610c5357610c536128e6565b60200260200101819052508380610c6990612b2b565b94505050610c80565b81610c7c81612b2b565b9250505b80610c8a81612b2b565b915050610aee565b5091979650505050505050565b5f8281526007602090815260408083206001600160a01b03851684529091529020805460609190610ccf906128a0565b80601f0160208091040260200160405190810160405280929190818152602001828054610cfb906128a0565b8015610d465780601f10610d1d57610100808354040283529160200191610d46565b820191905f5260205f20905b815481529060010190602001808311610d2957829003601f168201915b5050505050905092915050565b5f8281526006602090815260408083206001600160a01b0385168085529083528184206003015486855260028452828520918552925282205460ff909116919015158215610dca575f8581526006602090815260408083206001600160a01b0388168452909152902054610dc690611cdc565b9250505b9250925092565b5f548110610df2576040516309b3c62760e21b815260040160405180910390fd5b5f818152600160208190526040909120908101546001600160a01b03163314610e2e576040516393687c0b60e01b815260040160405180910390fd5b5f600482015460ff166002811115610e4857610e486128d2565b14610e665760405163239d573160e21b815260040160405180910390fd5b600581015460031115610e8c57604051631ae49b5360e21b815260040160405180910390fd5b60058101545f610ea163ffffffff8316611cf7565b90505f610ede610ecf8560060154610eca600187610ebf919061287a565b63ffffffff16611cf7565b611d02565b610ed96001611cf7565b611d43565b90505f5b83811015610f6d575f610f07610f0184610ed98563ffffffff16611cf7565b85611d02565b5f8881526003602090815260408083208684529091529020819055600587018054919250610f5b9183919085908110610f4257610f426128e6565b5f918252602090912001546001600160a01b0316611d84565b610f6481611c54565b50600101610ee2565b5060048401805460ff1916600117905560405185907f821e8f282903f17bca18208015c4de756a7bbcd272fce239c6701cf1f9aed620905f90a25050505050565b5f80548210610fd0576040516309b3c62760e21b815260040160405180910390fd5b505f9081526001602052604090206005015490565b6001600160a01b0381165f9081526004602090815260409182902080548351818402810184019094528084526060939283018282801561045a57602002820191905f5260205f20908154815260200190600101908083116104465750505050509050919050565b611054612337565b5f548210611075576040516309b3c62760e21b815260040160405180910390fd5b5f82815260016020818152604092839020835160e08101855281548152928101546001600160a01b03169183019190915260028101805491938301916110ba906128a0565b80601f01602080910402602001604051908101604052809291908181526020018280546110e6906128a0565b80156111315780601f1061110857610100808354040283529160200191611131565b820191905f5260205f20905b81548152906001019060200180831161111457829003601f168201915b505050918352505060038301546020820152600483015460409091019060ff166002811115611162576111626128d2565b60ff908116825260058401546020830152600890930154909216151560409092019190915292915050565b5f5481106111ae576040516309b3c62760e21b815260040160405180910390fd5b5f81815260016020526040812090600482015460ff1660028111156111d5576111d56128d2565b146111f35760405163239d573160e21b815260040160405180910390fd5b5f82815260066020908152604080832033845290915290206003015460ff1661122f576040516391e6434360e01b815260040160405180910390fd5b5f82815260066020908152604080832033845290915281208054909190819061125790611cdc565b915091508061127957604051639bbc3a6360e01b815260040160405180910390fd5b81611297576040516303e4e47560e21b815260040160405180910390fd5b611330858460020180546112aa906128a0565b80601f01602080910402602001604051908101604052809291908181526020018280546112d6906128a0565b80156113215780601f106112f857610100808354040283529160200191611321565b820191905f5260205f20905b81548152906001019060200180831161130457829003601f168201915b50505050508560010154611df7565b5f85815260066020908152604080832033845290915281208181556001810182905590611360600283018261237c565b50600301805460ff191690555050505050565b5f8054818061138183612b2b565b909155505f81815260016020819052604090912082815590810180546001600160a01b03191633179055909150600281016113bd898b83612b43565b5042600382015560048101805460ff191690556113dc61089f86612964565b6006820181905560088201805460ff19168515151790556113fc90611c54565b821561141e5761140e61089f85612964565b6007820181905561141e90611c54565b600581018054600181810183555f928352602080842090920180546001600160a01b0319163390811790915585845260028352604080852082865284528085209290925585845260078352818420908452909152902061147f878983612b43565b50335f818152600460209081526040808320805460018181018355918552838520018790558484526005835281842080549182018155845291909220018490555183907fbff4580a5ee0b1eaa2ae15d6c8db6b31ba6864e3ee5e7a4391cfe3b1885aef30906114f3908d908d908990612c25565b60405180910390a3336001600160a01b0316827fa259bab503f65f6ae62d4f6a412b41b967799a284f69f21ba61362cf04e5eafa8989604051611537929190612c4a565b60405180910390a350979650505050505050565b60605f54821061156e576040516309b3c62760e21b815260040160405180910390fd5b5f828152600160209081526040808320600501805482518185028101850190935280835291929091908301828280156115ce57602002820191905f5260205f20905b81546001600160a01b031681526001909101906020018083116115b0575b505050505090505f815167ffffffffffffffff8111156115f0576115f0612852565b60405190808252806020026020018201604052801561162357816020015b606081526020019060019003908161160e5790505b5090505f5b82518110156117285760075f8681526020019081526020015f205f848381518110611655576116556128e6565b60200260200101516001600160a01b03166001600160a01b031681526020019081526020015f208054611687906128a0565b80601f01602080910402602001604051908101604052809291908181526020018280546116b3906128a0565b80156116fe5780601f106116d5576101008083540402835291602001916116fe565b820191905f5260205f20905b8154815290600101906020018083116116e157829003601f168201915b5050505050828281518110611715576117156128e6565b6020908102919091010152600101611628565b509392505050565b60605f548210611753576040516309b3c62760e21b815260040160405180910390fd5b5f828152600160209081526040918290206005018054835181840281018401909452808452909183018282801561045a57602002820191905f5260205f20905b81546001600160a01b031681526001909101906020018083116117935750505050509050919050565b6005602052815f5260405f2081815481106109d0575f80fd5b5f5481106117f6576040516309b3c62760e21b815260040160405180910390fd5b5f818152600160208190526040909120908101546001600160a01b03163314611832576040516393687c0b60e01b815260040160405180910390fd5b6001600482015460ff16600281111561184d5761184d6128d2565b1461186b57604051634065aaf160e11b815260040160405180910390fd5b60058101545f5b818110156118ca575f5b828110156118c1575f8581526003602090815260408083208584529091529020546005850180546118b992919084908110610f4257610f426128e6565b60010161187c565b50600101611872565b5060048201805460ff1916600217905560405183907fab1df3e178b47bd223536fd1d2353abb8810e22f02f28cfa9b5843d31a2b162c905f90a2505050565b5f8054831061192b576040516309b3c62760e21b815260040160405180910390fd5b60025f8481526001602052604090206004015460ff166002811115611952576119526128d2565b1461198e5760405162461bcd60e51b815260206004820152600c60248201526b1b9bdd081c995d99585b195960a21b6044820152606401610791565b505f91825260036020908152604080842092845291905290205490565b5f805482106119cd576040516309b3c62760e21b815260040160405180910390fd5b5f82815260016020526040812090600482015460ff1660028111156119f4576119f46128d2565b03611a1257604051633a5f7b5760e01b815260040160405180910390fd5b5f83815260026020908152604080832033845290915281205490819003611a4c5760405163aba4733960e01b815260040160405180910390fd5b5f84815260036020526040812090611a6560018461287a565b81526020019081526020015f205492505050919050565b5f848152600160208181526040808420600581018054948501815580865283862090940180546001600160a01b031916339081179091559354898652600284528286208587528452828620558885526007835281852093855292909152909120611ae7848683612b43565b50611b028160060154611afd8461089f90612964565b611ee2565b60068201819055611b1290611c54565b335f818152600560209081526040808320805460018101825590845291909220018790555186907fa259bab503f65f6ae62d4f6a412b41b967799a284f69f21ba61362cf04e5eafa90611b689088908890612c4a565b60405180910390a35050505050565b60408101515f9060049060ff168114611bb65760408084015190516367cf307160e01b815260ff91821660048201529082166024820152604401610791565b60408051608080820183525f808352602080840182905283850191909152606092830183905283519182018452865182528087015160ff16908201526004928101929092528085015190820152611c0c90611f23565b9392505050565b5f611c1d83611f9e565b611c2d57611c2a5f611cf7565b92505b611c3682611f9e565b611c4657611c435f611cf7565b91505b611c0c600484846018611fa7565b604051631974142760e21b81526004810182905230602482015273ea30c4b8b44078bbf8a6ef5b9f1ec1626c7848d9906365d0509c906044015f604051808303815f87803b158015611ca4575f80fd5b505af11580156109b0573d5f803e3d5ffd5b611cbf81611f9e565b611ccf57611ccc5f612048565b90505b611cd881612053565b5050565b5f805f80611ce9856120c1565b901515969095509350505050565b5f61067c825f61213f565b5f611d0c83611f9e565b611d1c57611d195f611cf7565b92505b611d2582611f9e565b611d3557611d325f611cf7565b91505b611c0c60048484600e611fa7565b5f611d4d83611f9e565b611d5d57611d5a5f611cf7565b92505b611d6682611f9e565b611d7657611d735f611cf7565b91505b611c0c600484846008611fa7565b604051631974142760e21b8152600481018390526001600160a01b038216602482015273ea30c4b8b44078bbf8a6ef5b9f1ec1626c7848d9906365d0509c906044015f604051808303815f87803b158015611ddd575f80fd5b505af1158015611def573d5f803e3d5ffd5b505050505050565b5f838152600160208181526040808420600581018054948501815580865283862090940180546001600160a01b031916339081179091559354888652600284528286208587528452828620558785526007835281852093855292909152909120611e618482612a6f565b50611e70816006015483611ee2565b60068201819055611e8090611c54565b335f818152600560209081526040808320805460018101825590845291909220018690555185907fa259bab503f65f6ae62d4f6a412b41b967799a284f69f21ba61362cf04e5eafa90611ed4908790612591565b60405180910390a350505050565b5f611eec83611f9e565b611efc57611ef95f611cf7565b92505b611f0582611f9e565b611f1557611f125f611cf7565b91505b611c0c600484846009611fa7565b6040516313fce3b160e11b81525f9073ea30c4b8b44078bbf8a6ef5b9f1ec1626c7848d9906327f9c76290611f5e9085903390600401612c5d565b6020604051808303815f875af1158015611f7a573d5f803e3d5ffd5b505050506040513d601f19601f8201168201806040525081019061067c9190612cb4565b5f81151561067c565b5f73ea30c4b8b44078bbf8a6ef5b9f1ec1626c7848d9631888debd8684611fce8888612155565b604080515f815260208101918290526001600160e01b031960e087901b16909152611fff9392919060248101612ccb565b6020604051808303815f875af115801561201b573d5f803e3d5ffd5b505050506040513d601f19601f8201168201806040525081019061203f9190612cb4565b95945050505050565b5f61067c825f6121be565b604051630828982760e01b8152600481018290523360248201525f9073ea30c4b8b44078bbf8a6ef5b9f1ec1626c7848d9906308289827906044015f604051808303815f87803b1580156120a5575f80fd5b505af11580156120b7573d5f803e3d5ffd5b5093949350505050565b60405163458693c960e01b8152600481018290525f90819073ea30c4b8b44078bbf8a6ef5b9f1ec1626c7848d99063458693c9906024016040805180830381865afa158015612112573d5f803e3d5ffd5b505050506040513d601f19601f820116820180604052508101906121369190612d25565b91509150915091565b5f8061214d846004856121d2565b949350505050565b60408051600280825260608083018452925f92919060208301908036833701905050905083815f8151811061218c5761218c6128e6565b60200260200101818152505082816001815181106121ac576121ac6128e6565b60209081029190910101529392505050565b5f8083156121ca575060015b5f61203f825f865b604080515f8082526020820190925273ea30c4b8b44078bbf8a6ef5b9f1ec1626c7848d990631888debd908590601a90612218898960ff166122138a612277565b6122ac565b6040518563ffffffff1660e01b81526004016122379493929190612ccb565b6020604051808303815f875af1158015612253573d5f803e3d5ffd5b505050506040513d601f19601f8201168201806040525081019061214d9190612cb4565b5f808260030b12156122a2576040516311ead17f60e31b8152600383900b6004820152602401610791565b5063ffffffff1690565b604080516003808252608082019092526060915f919060208201848036833701905050905084815f815181106122e4576122e46128e6565b6020026020010181815250508381600181518110612304576123046128e6565b6020026020010181815250508281600281518110612324576123246128e6565b6020908102919091010152949350505050565b6040518060e001604052805f81526020015f6001600160a01b03168152602001606081526020015f81526020015f60ff1681526020015f81526020015f151581525090565b508054612388906128a0565b5f825580601f10612397575050565b601f0160209004905f5260205f20908101906123b391906123b6565b50565b5b808211156123ca575f81556001016123b7565b5090565b80356001600160a01b03811681146123e4575f80fd5b919050565b5f602082840312156123f9575f80fd5b611c0c826123ce565b5f815180845260208085019450602084015f5b8381101561243157815187529582019590820190600101612415565b509495945050505050565b602081525f611c0c6020830184612402565b5f806040838503121561245f575f80fd5b50508035926020909101359150565b5f81518084528060208401602086015e5f602082860101526020601f19601f83011685010191505092915050565b8051825260018060a01b0360208201511660208301525f604082015160e060408501526124cc60e085018261246e565b90506060830151606085015260ff608084015116608085015260a083015160a085015260c0830151151560c08501528091505092915050565b5f60208083016020845280855180835260408601915060408160051b8701019250602087015f5b8281101561255a57603f1988860301845261254885835161249c565b9450928501929085019060010161252c565b5092979650505050505050565b5f8060408385031215612578575f80fd5b82359150612588602084016123ce565b90509250929050565b602081525f611c0c602083018461246e565b5f8083601f8401126125b3575f80fd5b50813567ffffffffffffffff8111156125ca575f80fd5b6020830191508360208285010111156125e1575f80fd5b9250929050565b5f608082840312156125f8575f80fd5b50919050565b5f805f805f60808688031215612612575f80fd5b85359450602086013567ffffffffffffffff80821115612630575f80fd5b61263c89838a016125a3565b90965094506040880135915080821115612654575f80fd5b61266089838a016125e8565b93506060880135915080821115612675575f80fd5b50612682888289016125e8565b9150509295509295909350565b5f80604083850312156126a0575f80fd5b6126a9836123ce565b946020939093013593505050565b5f602082840312156126c7575f80fd5b5035919050565b602081525f611c0c602083018461249c565b80151581146123b3575f80fd5b5f805f805f805f60a0888a031215612703575f80fd5b873567ffffffffffffffff8082111561271a575f80fd5b6127268b838c016125a3565b909950975060208a013591508082111561273e575f80fd5b61274a8b838c016125a3565b909750955060408a0135915080821115612762575f80fd5b61276e8b838c016125e8565b945060608a0135915080821115612783575f80fd5b506127908a828b016125e8565b92505060808801356127a1816126e0565b8091505092959891949750929550565b5f60208083016020845280855180835260408601915060408160051b8701019250602087015f5b8281101561255a57603f198886030184526127f485835161246e565b945092850192908501906001016127d8565b602080825282518282018190525f9190848201906040850190845b818110156128465783516001600160a01b031683529284019291840191600101612821565b50909695505050505050565b634e487b7160e01b5f52604160045260245ffd5b634e487b7160e01b5f52601160045260245ffd5b8181038181111561067c5761067c612866565b8082018082111561067c5761067c612866565b600181811c908216806128b457607f821691505b6020821081036125f857634e487b7160e01b5f52602260045260245ffd5b634e487b7160e01b5f52602160045260245ffd5b634e487b7160e01b5f52603260045260245ffd5b6040516080810167ffffffffffffffff8111828210171561291d5761291d612852565b60405290565b604051601f8201601f1916810167ffffffffffffffff8111828210171561294c5761294c612852565b604052919050565b803560ff811681146123e4575f80fd5b5f60808236031215612974575f80fd5b61297c6128fa565b82358152602061298d818501612954565b8183015261299d60408501612954565b6040830152606084013567ffffffffffffffff808211156129bc575f80fd5b9085019036601f8301126129ce575f80fd5b8135818111156129e0576129e0612852565b6129f2601f8201601f19168501612923565b91508082523684828501011115612a07575f80fd5b80848401858401375f9082019093019290925250606082015292915050565b601f821115612a6a57805f5260205f20601f840160051c81016020851015612a4b5750805b601f840160051c820191505b818110156109b0575f8155600101612a57565b505050565b815167ffffffffffffffff811115612a8957612a89612852565b612a9d81612a9784546128a0565b84612a26565b602080601f831160018114612ad0575f8415612ab95750858301515b5f19600386901b1c1916600185901b178555611def565b5f85815260208120601f198616915b82811015612afe57888601518255948401946001909101908401612adf565b5085821015612b1b57878501515f19600388901b60f8161c191681555b5050505050600190811b01905550565b5f60018201612b3c57612b3c612866565b5060010190565b67ffffffffffffffff831115612b5b57612b5b612852565b612b6f83612b6983546128a0565b83612a26565b5f601f841160018114612ba0575f8515612b895750838201355b5f19600387901b1c1916600186901b1783556109b0565b5f83815260208120601f198716915b82811015612bcf5786850135825560209485019460019092019101612baf565b5086821015612beb575f1960f88860031b161c19848701351681555b505060018560011b0183555050505050565b81835281816020850137505f828201602090810191909152601f909101601f19169091010190565b604081525f612c38604083018587612bfd565b90508215156020830152949350505050565b602081525f61214d602083018486612bfd565b604081528251604082015260ff602084015116606082015260ff60408401511660808201525f6060840151608060a0840152612c9c60c084018261246e565b91505060018060a01b03831660208301529392505050565b5f60208284031215612cc4575f80fd5b5051919050565b60ff851681525f60208510612cee57634e487b7160e01b5f52602160045260245ffd5b84602083015260806040830152612d086080830185612402565b8281036060840152612d1a8185612402565b979650505050505050565b5f8060408385031215612d36575f80fd5b825191506020830151612d48816126e0565b80915050925092905056fea26469706673582212205d20be0e50cc2b247933e88a160b021e76b0dcb98e055b5d9a30058230c7783064736f6c63430008190033",
  "devdoc": {
    "kind": "dev",
    "methods": {
      "completeJoinGame(uint256)": {
        "details": "Called after password verification decryption is ready",
        "params": {
          "gameId": "The ID of the game to join"
        }
      },
      "createGame(string,string,(uint256,uint8,uint8,bytes),(uint256,uint8,uint8,bytes),bool)": {
        "params": {
          "creatorEntropy": "Encrypted random value for assignment randomness",
          "creatorName": "The display name of the creator",
          "hasPassword": "Whether the game requires a password to join",
          "name": "The name of the game",
          "password": "Encrypted password (ignored if hasPassword is false)"
        },
        "returns": {
          "gameId": "The ID of the created game"
        }
      },
      "finalizeGame(uint256)": {
        "params": {
          "gameId": "The ID of the game to finalize"
        }
      },
      "getJoinStatus(uint256,address)": {
        "params": {
          "gameId": "The game ID",
          "player": "The player address"
        },
        "returns": {
          "hasPending": "Whether there's a pending join request",
          "isDecrypted": "Whether the password verification is complete",
          "isRegistered": "Whether the player is already registered"
        }
      },
      "requestJoinGame(uint256,string,(uint256,uint8,uint8,bytes),(uint256,uint8,uint8,bytes))": {
        "details": "For public games, joins immediately. For password games, starts async verification.",
        "params": {
          "gameId": "The ID of the game to join",
          "password": "Encrypted password guess (ignored for public games)",
          "playerName": "The display name for this player",
          "userEntropy": "Encrypted random value for assignment randomness"
        }
      },
      "revealGame(uint256)": {
        "params": {
          "gameId": "The ID of the game to reveal"
        }
      }
    },
    "version": 1
  },
  "userdoc": {
    "kind": "user",
    "methods": {
      "completeJoinGame(uint256)": {
        "notice": "Complete joining a password-protected game (Step 2)"
      },
      "createGame(string,string,(uint256,uint8,uint8,bytes),(uint256,uint8,uint8,bytes),bool)": {
        "notice": "Create a new Secret Santa game"
      },
      "finalizeGame(uint256)": {
        "notice": "Finalize a game and generate encrypted assignments (creator only)"
      },
      "getDestination(uint256,uint256)": {
        "notice": "Get destination for a player index (only after reveal)"
      },
      "getGame(uint256)": {
        "notice": "Get game info"
      },
      "getGamesByCreator(address)": {
        "notice": "Get games created by an address"
      },
      "getGamesByPlayer(address)": {
        "notice": "Get games a player is participating in"
      },
      "getJoinStatus(uint256,address)": {
        "notice": "Check the join status for a player"
      },
      "getMyTarget(uint256)": {
        "notice": "Get your encrypted target index (decrypt client-side with permit)"
      },
      "getParticipant(uint256,uint256)": {
        "notice": "Get a specific participant by index"
      },
      "getParticipantCount(uint256)": {
        "notice": "Get participant count for a game"
      },
      "getParticipantNames(uint256)": {
        "notice": "Get all participant names for a game"
      },
      "getParticipants(uint256)": {
        "notice": "Get all participants in a game"
      },
      "getPlayerName(uint256,address)": {
        "notice": "Get a player's display name for a game"
      },
      "isRegistered(uint256,address)": {
        "notice": "Check if a user is registered in a game"
      },
      "listGames(uint256,uint256)": {
        "notice": "List games with pagination"
      },
      "listOpenGames(uint256,uint256)": {
        "notice": "List only open games (registration phase)"
      },
      "requestJoinGame(uint256,string,(uint256,uint8,uint8,bytes),(uint256,uint8,uint8,bytes))": {
        "notice": "Request to join a game (Step 1)"
      },
      "revealGame(uint256)": {
        "notice": "Reveal all assignments to everyone (creator only)"
      }
    },
    "notice": " SECRET SANTA - Password Protected Games with FHE  All games are stored in mappings within this single contract. Games can optionally be password protected using FHE encryption.  FLOW  CREATE GAME:   1. Creator encrypts entropy (and optionally password) client-side   2. createGame(name, entropy, password, hasPassword)  new game ID   3. Creator auto-registered, share game ID (and password) with friends JOIN GAME (2-step for password games):   1. Player encrypts entropy and password client-side   2. requestJoinGame(gameId, password, entropy)      - Public games: immediately joined      - Password games: starts async password verification   3. completeJoinGame(gameId) - only for password games after decryption ready FINALIZE:   1. Creator calls finalizeGame() when ready (3+ players)   2. LCG permutation creates encrypted assignments   3. Each player can only decrypt their own target ",
    "version": 1
  },
  "storageLayout": {
    "storage": [
      {
        "astId": 22458,
        "contract": "contracts/SecretSantaFactory.sol:SecretSanta",
        "label": "gameCount",
        "offset": 0,
        "slot": "0",
        "type": "t_uint256"
      },
      {
        "astId": 22463,
        "contract": "contracts/SecretSantaFactory.sol:SecretSanta",
        "label": "games",
        "offset": 0,
        "slot": "1",
        "type": "t_mapping(t_uint256,t_struct(Game)22430_storage)"
      },
      {
        "astId": 22469,
        "contract": "contracts/SecretSantaFactory.sol:SecretSanta",
        "label": "playerIndex",
        "offset": 0,
        "slot": "2",
        "type": "t_mapping(t_uint256,t_mapping(t_address,t_uint256))"
      },
      {
        "astId": 22476,
        "contract": "contracts/SecretSantaFactory.sol:SecretSanta",
        "label": "destinations",
        "offset": 0,
        "slot": "3",
        "type": "t_mapping(t_uint256,t_mapping(t_uint256,t_userDefinedValueType(euint32)24))"
      },
      {
        "astId": 22481,
        "contract": "contracts/SecretSantaFactory.sol:SecretSanta",
        "label": "gamesByCreator",
        "offset": 0,
        "slot": "4",
        "type": "t_mapping(t_address,t_array(t_uint256)dyn_storage)"
      },
      {
        "astId": 22486,
        "contract": "contracts/SecretSantaFactory.sol:SecretSanta",
        "label": "gamesByPlayer",
        "offset": 0,
        "slot": "5",
        "type": "t_mapping(t_address,t_array(t_uint256)dyn_storage)"
      },
      {
        "astId": 22493,
        "contract": "contracts/SecretSantaFactory.sol:SecretSanta",
        "label": "pendingJoins",
        "offset": 0,
        "slot": "6",
        "type": "t_mapping(t_uint256,t_mapping(t_address,t_struct(PendingJoin)22456_storage))"
      },
      {
        "astId": 22499,
        "contract": "contracts/SecretSantaFactory.sol:SecretSanta",
        "label": "playerNames",
        "offset": 0,
        "slot": "7",
        "type": "t_mapping(t_uint256,t_mapping(t_address,t_string_storage))"
      }
    ],
    "types": {
      "t_address": {
        "encoding": "inplace",
        "label": "address",
        "numberOfBytes": "20"
      },
      "t_array(t_address)dyn_storage": {
        "base": "t_address",
        "encoding": "dynamic_array",
        "label": "address[]",
        "numberOfBytes": "32"
      },
      "t_array(t_uint256)dyn_storage": {
        "base": "t_uint256",
        "encoding": "dynamic_array",
        "label": "uint256[]",
        "numberOfBytes": "32"
      },
      "t_bool": {
        "encoding": "inplace",
        "label": "bool",
        "numberOfBytes": "1"
      },
      "t_enum(GameState)22407": {
        "encoding": "inplace",
        "label": "enum SecretSanta.GameState",
        "numberOfBytes": "1"
      },
      "t_mapping(t_address,t_array(t_uint256)dyn_storage)": {
        "encoding": "mapping",
        "key": "t_address",
        "label": "mapping(address => uint256[])",
        "numberOfBytes": "32",
        "value": "t_array(t_uint256)dyn_storage"
      },
      "t_mapping(t_address,t_string_storage)": {
        "encoding": "mapping",
        "key": "t_address",
        "label": "mapping(address => string)",
        "numberOfBytes": "32",
        "value": "t_string_storage"
      },
      "t_mapping(t_address,t_struct(PendingJoin)22456_storage)": {
        "encoding": "mapping",
        "key": "t_address",
        "label": "mapping(address => struct SecretSanta.PendingJoin)",
        "numberOfBytes": "32",
        "value": "t_struct(PendingJoin)22456_storage"
      },
      "t_mapping(t_address,t_uint256)": {
        "encoding": "mapping",
        "key": "t_address",
        "label": "mapping(address => uint256)",
        "numberOfBytes": "32",
        "value": "t_uint256"
      },
      "t_mapping(t_uint256,t_mapping(t_address,t_string_storage))": {
        "encoding": "mapping",
        "key": "t_uint256",
        "label": "mapping(uint256 => mapping(address => string))",
        "numberOfBytes": "32",
        "value": "t_mapping(t_address,t_string_storage)"
      },
      "t_mapping(t_uint256,t_mapping(t_address,t_struct(PendingJoin)22456_storage))": {
        "encoding": "mapping",
        "key": "t_uint256",
        "label": "mapping(uint256 => mapping(address => struct SecretSanta.PendingJoin))",
        "numberOfBytes": "32",
        "value": "t_mapping(t_address,t_struct(PendingJoin)22456_storage)"
      },
      "t_mapping(t_uint256,t_mapping(t_address,t_uint256))": {
        "encoding": "mapping",
        "key": "t_uint256",
        "label": "mapping(uint256 => mapping(address => uint256))",
        "numberOfBytes": "32",
        "value": "t_mapping(t_address,t_uint256)"
      },
      "t_mapping(t_uint256,t_mapping(t_uint256,t_userDefinedValueType(euint32)24))": {
        "encoding": "mapping",
        "key": "t_uint256",
        "label": "mapping(uint256 => mapping(uint256 => euint32))",
        "numberOfBytes": "32",
        "value": "t_mapping(t_uint256,t_userDefinedValueType(euint32)24)"
      },
      "t_mapping(t_uint256,t_struct(Game)22430_storage)": {
        "encoding": "mapping",
        "key": "t_uint256",
        "label": "mapping(uint256 => struct SecretSanta.Game)",
        "numberOfBytes": "32",
        "value": "t_struct(Game)22430_storage"
      },
      "t_mapping(t_uint256,t_userDefinedValueType(euint32)24)": {
        "encoding": "mapping",
        "key": "t_uint256",
        "label": "mapping(uint256 => euint32)",
        "numberOfBytes": "32",
        "value": "t_userDefinedValueType(euint32)24"
      },
      "t_string_storage": {
        "encoding": "bytes",
        "label": "string",
        "numberOfBytes": "32"
      },
      "t_struct(Game)22430_storage": {
        "encoding": "inplace",
        "label": "struct SecretSanta.Game",
        "members": [
          {
            "astId": 22409,
            "contract": "contracts/SecretSantaFactory.sol:SecretSanta",
            "label": "gameId",
            "offset": 0,
            "slot": "0",
            "type": "t_uint256"
          },
          {
            "astId": 22411,
            "contract": "contracts/SecretSantaFactory.sol:SecretSanta",
            "label": "creator",
            "offset": 0,
            "slot": "1",
            "type": "t_address"
          },
          {
            "astId": 22413,
            "contract": "contracts/SecretSantaFactory.sol:SecretSanta",
            "label": "name",
            "offset": 0,
            "slot": "2",
            "type": "t_string_storage"
          },
          {
            "astId": 22415,
            "contract": "contracts/SecretSantaFactory.sol:SecretSanta",
            "label": "createdAt",
            "offset": 0,
            "slot": "3",
            "type": "t_uint256"
          },
          {
            "astId": 22418,
            "contract": "contracts/SecretSantaFactory.sol:SecretSanta",
            "label": "state",
            "offset": 0,
            "slot": "4",
            "type": "t_enum(GameState)22407"
          },
          {
            "astId": 22421,
            "contract": "contracts/SecretSantaFactory.sol:SecretSanta",
            "label": "participants",
            "offset": 0,
            "slot": "5",
            "type": "t_array(t_address)dyn_storage"
          },
          {
            "astId": 22424,
            "contract": "contracts/SecretSantaFactory.sol:SecretSanta",
            "label": "entropy",
            "offset": 0,
            "slot": "6",
            "type": "t_userDefinedValueType(euint32)24"
          },
          {
            "astId": 22427,
            "contract": "contracts/SecretSantaFactory.sol:SecretSanta",
            "label": "password",
            "offset": 0,
            "slot": "7",
            "type": "t_userDefinedValueType(euint32)24"
          },
          {
            "astId": 22429,
            "contract": "contracts/SecretSantaFactory.sol:SecretSanta",
            "label": "hasPassword",
            "offset": 0,
            "slot": "8",
            "type": "t_bool"
          }
        ],
        "numberOfBytes": "288"
      },
      "t_struct(PendingJoin)22456_storage": {
        "encoding": "inplace",
        "label": "struct SecretSanta.PendingJoin",
        "members": [
          {
            "astId": 22448,
            "contract": "contracts/SecretSantaFactory.sol:SecretSanta",
            "label": "passwordMatch",
            "offset": 0,
            "slot": "0",
            "type": "t_userDefinedValueType(ebool)18"
          },
          {
            "astId": 22451,
            "contract": "contracts/SecretSantaFactory.sol:SecretSanta",
            "label": "userEntropy",
            "offset": 0,
            "slot": "1",
            "type": "t_userDefinedValueType(euint32)24"
          },
          {
            "astId": 22453,
            "contract": "contracts/SecretSantaFactory.sol:SecretSanta",
            "label": "playerName",
            "offset": 0,
            "slot": "2",
            "type": "t_string_storage"
          },
          {
            "astId": 22455,
            "contract": "contracts/SecretSantaFactory.sol:SecretSanta",
            "label": "exists",
            "offset": 0,
            "slot": "3",
            "type": "t_bool"
          }
        ],
        "numberOfBytes": "128"
      },
      "t_uint256": {
        "encoding": "inplace",
        "label": "uint256",
        "numberOfBytes": "32"
      },
      "t_userDefinedValueType(ebool)18": {
        "encoding": "inplace",
        "label": "ebool",
        "numberOfBytes": "32"
      },
      "t_userDefinedValueType(euint32)24": {
        "encoding": "inplace",
        "label": "euint32",
        "numberOfBytes": "32"
      }
    }
  }
}